{
	"_format": "hh-sol-artifact-1",
	"contractName": "Dauction",
	"sourceName": "contracts/Dauction.sol",
	"abi": [
		{
			"inputs": [
				{
					"components": [
						{
							"internalType": "address",
							"name": "token",
							"type": "address"
						},
						{
							"internalType": "address",
							"name": "priceFeed",
							"type": "address"
						}
					],
					"internalType": "struct Dauction.BidTokens[]",
					"name": "bidTokensArray",
					"type": "tuple[]"
				},
				{
					"internalType": "address",
					"name": "_USDT",
					"type": "address"
				},
				{
					"internalType": "uint256",
					"name": "_minAuctionPeriod",
					"type": "uint256"
				}
			],
			"stateMutability": "nonpayable",
			"type": "constructor"
		},
		{
			"anonymous": false,
			"inputs": [
				{
					"indexed": false,
					"internalType": "address",
					"name": "nft",
					"type": "address"
				},
				{
					"indexed": false,
					"internalType": "uint256",
					"name": "tokenId",
					"type": "uint256"
				},
				{
					"indexed": false,
					"internalType": "address",
					"name": "seller",
					"type": "address"
				},
				{
					"indexed": false,
					"internalType": "uint256",
					"name": "minBidPrice",
					"type": "uint256"
				},
				{
					"indexed": false,
					"internalType": "uint256",
					"name": "startTime",
					"type": "uint256"
				},
				{
					"indexed": false,
					"internalType": "uint256",
					"name": "endTime",
					"type": "uint256"
				},
				{
					"indexed": false,
					"internalType": "uint256",
					"name": "revealDuration",
					"type": "uint256"
				},
				{
					"indexed": false,
					"internalType": "uint256",
					"name": "auctionCreatedAt",
					"type": "uint256"
				}
			],
			"name": "AuctionCreated",
			"type": "event"
		},
		{
			"anonymous": false,
			"inputs": [
				{
					"indexed": false,
					"internalType": "address",
					"name": "nftAddress",
					"type": "address"
				},
				{
					"indexed": false,
					"internalType": "uint256",
					"name": "tokenId",
					"type": "uint256"
				},
				{
					"indexed": false,
					"internalType": "address",
					"name": "previousOwner",
					"type": "address"
				},
				{
					"indexed": false,
					"internalType": "address",
					"name": "newOwner",
					"type": "address"
				},
				{
					"indexed": false,
					"internalType": "uint256",
					"name": "tokenAmountPaid",
					"type": "uint256"
				},
				{
					"indexed": false,
					"internalType": "uint256",
					"name": "auctionSettleTime",
					"type": "uint256"
				}
			],
			"name": "AuctionSettled",
			"type": "event"
		},
		{
			"anonymous": false,
			"inputs": [
				{
					"indexed": false,
					"internalType": "address",
					"name": "nftAddress",
					"type": "address"
				},
				{
					"indexed": false,
					"internalType": "uint256",
					"name": "tokenId",
					"type": "uint256"
				},
				{
					"indexed": false,
					"internalType": "address",
					"name": "owner",
					"type": "address"
				},
				{
					"indexed": false,
					"internalType": "uint256",
					"name": "time",
					"type": "uint256"
				}
			],
			"name": "AuctionUnsettled",
			"type": "event"
		},
		{
			"anonymous": false,
			"inputs": [
				{
					"indexed": false,
					"internalType": "address",
					"name": "nftContractAddress",
					"type": "address"
				},
				{
					"indexed": false,
					"internalType": "uint256",
					"name": "tokenId",
					"type": "uint256"
				},
				{
					"indexed": false,
					"internalType": "bytes32",
					"name": "bidCommitment",
					"type": "bytes32"
				},
				{
					"indexed": false,
					"internalType": "uint256",
					"name": "biddedAt",
					"type": "uint256"
				}
			],
			"name": "BidCreated",
			"type": "event"
		},
		{
			"anonymous": false,
			"inputs": [
				{
					"indexed": false,
					"internalType": "address",
					"name": "tokenContract",
					"type": "address"
				},
				{
					"indexed": false,
					"internalType": "uint256",
					"name": "tokenId",
					"type": "uint256"
				},
				{
					"indexed": false,
					"internalType": "bytes32",
					"name": "bidHash",
					"type": "bytes32"
				},
				{
					"indexed": false,
					"internalType": "address",
					"name": "bidder",
					"type": "address"
				},
				{
					"indexed": false,
					"internalType": "bytes32",
					"name": "salt",
					"type": "bytes32"
				},
				{
					"indexed": false,
					"internalType": "uint256",
					"name": "bidValue",
					"type": "uint256"
				}
			],
			"name": "BidRevealed",
			"type": "event"
		},
		{
			"inputs": [],
			"name": "activeAuctions",
			"outputs": [
				{
					"internalType": "uint256",
					"name": "",
					"type": "uint256"
				}
			],
			"stateMutability": "view",
			"type": "function"
		},
		{
			"inputs": [
				{
					"internalType": "address",
					"name": "",
					"type": "address"
				},
				{
					"internalType": "uint256",
					"name": "",
					"type": "uint256"
				}
			],
			"name": "auctions",
			"outputs": [
				{
					"internalType": "address",
					"name": "nftContract",
					"type": "address"
				},
				{
					"internalType": "address payable",
					"name": "owner",
					"type": "address"
				},
				{
					"internalType": "uint256",
					"name": "startTime",
					"type": "uint256"
				},
				{
					"internalType": "uint256",
					"name": "minBidPrice",
					"type": "uint256"
				},
				{
					"internalType": "uint256",
					"name": "endTime",
					"type": "uint256"
				},
				{
					"internalType": "uint256",
					"name": "revealDuration",
					"type": "uint256"
				},
				{
					"internalType": "enum Dauction.AuctionStatus",
					"name": "auctionStatus",
					"type": "uint8"
				}
			],
			"stateMutability": "view",
			"type": "function"
		},
		{
			"inputs": [
				{
					"internalType": "address",
					"name": "",
					"type": "address"
				}
			],
			"name": "bidTokenToPriceFeed",
			"outputs": [
				{
					"internalType": "address",
					"name": "",
					"type": "address"
				}
			],
			"stateMutability": "view",
			"type": "function"
		},
		{
			"inputs": [
				{
					"internalType": "uint256",
					"name": "",
					"type": "uint256"
				}
			],
			"name": "bidTokens",
			"outputs": [
				{
					"internalType": "address",
					"name": "token",
					"type": "address"
				},
				{
					"internalType": "address",
					"name": "priceFeed",
					"type": "address"
				}
			],
			"stateMutability": "view",
			"type": "function"
		},
		{
			"inputs": [
				{
					"internalType": "address",
					"name": "_priceFeed",
					"type": "address"
				},
				{
					"internalType": "uint256",
					"name": "bidAmount",
					"type": "uint256"
				}
			],
			"name": "calculateBasePrice",
			"outputs": [
				{
					"internalType": "uint256",
					"name": "",
					"type": "uint256"
				}
			],
			"stateMutability": "view",
			"type": "function"
		},
		{
			"inputs": [
				{
					"internalType": "address",
					"name": "_bidToken",
					"type": "address"
				}
			],
			"name": "checkBidTokenUSDTEquivalence",
			"outputs": [
				{
					"internalType": "bool",
					"name": "",
					"type": "bool"
				}
			],
			"stateMutability": "view",
			"type": "function"
		},
		{
			"inputs": [
				{
					"internalType": "address",
					"name": "tokenAddress",
					"type": "address"
				},
				{
					"internalType": "address",
					"name": "approver",
					"type": "address"
				},
				{
					"internalType": "uint256",
					"name": "bidValue",
					"type": "uint256"
				}
			],
			"name": "checkTokenBalanceAndApproval",
			"outputs": [
				{
					"internalType": "bool",
					"name": "",
					"type": "bool"
				}
			],
			"stateMutability": "view",
			"type": "function"
		},
		{
			"inputs": [
				{
					"internalType": "address",
					"name": "_nftAddress",
					"type": "address"
				},
				{
					"internalType": "uint256",
					"name": "_tokenId",
					"type": "uint256"
				},
				{
					"internalType": "uint256",
					"name": "_minBidPrice",
					"type": "uint256"
				},
				{
					"internalType": "uint256",
					"name": "_startTime",
					"type": "uint256"
				},
				{
					"internalType": "uint256",
					"name": "_endTime",
					"type": "uint256"
				},
				{
					"internalType": "uint256",
					"name": "_revealDuration",
					"type": "uint256"
				}
			],
			"name": "createAuction",
			"outputs": [],
			"stateMutability": "nonpayable",
			"type": "function"
		},
		{
			"inputs": [
				{
					"internalType": "address",
					"name": "nftContractAddress",
					"type": "address"
				},
				{
					"internalType": "uint256",
					"name": "tokenId",
					"type": "uint256"
				},
				{
					"internalType": "bytes32",
					"name": "bidCommitment",
					"type": "bytes32"
				},
				{
					"internalType": "address",
					"name": "bidToken",
					"type": "address"
				}
			],
			"name": "createBid",
			"outputs": [],
			"stateMutability": "nonpayable",
			"type": "function"
		},
		{
			"inputs": [
				{
					"internalType": "address",
					"name": "nftAddress",
					"type": "address"
				},
				{
					"internalType": "uint256",
					"name": "tokenId",
					"type": "uint256"
				}
			],
			"name": "getAuctionStatus",
			"outputs": [
				{
					"internalType": "string",
					"name": "_auctionStatus",
					"type": "string"
				}
			],
			"stateMutability": "view",
			"type": "function"
		},
		{
			"inputs": [
				{
					"internalType": "address",
					"name": "nftAddress",
					"type": "address"
				},
				{
					"internalType": "uint256",
					"name": "tokenId",
					"type": "uint256"
				},
				{
					"internalType": "address",
					"name": "bidder",
					"type": "address"
				}
			],
			"name": "getBid",
			"outputs": [
				{
					"components": [
						{
							"internalType": "uint256",
							"name": "amountBidded",
							"type": "uint256"
						},
						{
							"internalType": "bytes32",
							"name": "bidCommitHash",
							"type": "bytes32"
						},
						{
							"internalType": "address",
							"name": "bidToken",
							"type": "address"
						}
					],
					"internalType": "struct Dauction.Bid",
					"name": "",
					"type": "tuple"
				}
			],
			"stateMutability": "view",
			"type": "function"
		},
		{
			"inputs": [],
			"name": "getBidTokens",
			"outputs": [
				{
					"components": [
						{
							"internalType": "address",
							"name": "token",
							"type": "address"
						},
						{
							"internalType": "address",
							"name": "priceFeed",
							"type": "address"
						}
					],
					"internalType": "struct Dauction.BidTokens[]",
					"name": "",
					"type": "tuple[]"
				}
			],
			"stateMutability": "view",
			"type": "function"
		},
		{
			"inputs": [
				{
					"internalType": "address",
					"name": "nftAddress",
					"type": "address"
				},
				{
					"internalType": "uint256",
					"name": "tokenId",
					"type": "uint256"
				}
			],
			"name": "getBidders",
			"outputs": [
				{
					"internalType": "address[]",
					"name": "",
					"type": "address[]"
				}
			],
			"stateMutability": "view",
			"type": "function"
		},
		{
			"inputs": [
				{
					"internalType": "address",
					"name": "_priceFeed",
					"type": "address"
				}
			],
			"name": "getLatestPrice",
			"outputs": [
				{
					"internalType": "int256",
					"name": "",
					"type": "int256"
				},
				{
					"internalType": "uint8",
					"name": "",
					"type": "uint8"
				}
			],
			"stateMutability": "view",
			"type": "function"
		},
		{
			"inputs": [
				{
					"internalType": "address",
					"name": "nftAddress",
					"type": "address"
				},
				{
					"internalType": "uint256",
					"name": "tokenId",
					"type": "uint256"
				}
			],
			"name": "getMinBidPrice",
			"outputs": [
				{
					"internalType": "uint256",
					"name": "",
					"type": "uint256"
				}
			],
			"stateMutability": "view",
			"type": "function"
		},
		{
			"inputs": [],
			"name": "minAuctionPeriod",
			"outputs": [
				{
					"internalType": "uint256",
					"name": "",
					"type": "uint256"
				}
			],
			"stateMutability": "view",
			"type": "function"
		},
		{
			"inputs": [
				{
					"internalType": "address",
					"name": "nftAddress",
					"type": "address"
				},
				{
					"internalType": "uint256",
					"name": "tokenId",
					"type": "uint256"
				},
				{
					"internalType": "uint256",
					"name": "bidValue",
					"type": "uint256"
				},
				{
					"internalType": "bytes32",
					"name": "salt",
					"type": "bytes32"
				}
			],
			"name": "revealBid",
			"outputs": [],
			"stateMutability": "nonpayable",
			"type": "function"
		},
		{
			"inputs": [
				{
					"internalType": "uint256",
					"name": "_auctionDuration",
					"type": "uint256"
				}
			],
			"name": "setMinimumAuctionPeriod",
			"outputs": [],
			"stateMutability": "nonpayable",
			"type": "function"
		},
		{
			"inputs": [
				{
					"internalType": "address",
					"name": "nftAddress",
					"type": "address"
				},
				{
					"internalType": "uint256",
					"name": "tokenId",
					"type": "uint256"
				}
			],
			"name": "settleAuction",
			"outputs": [],
			"stateMutability": "nonpayable",
			"type": "function"
		},
		{
			"inputs": [],
			"name": "totalAuctions",
			"outputs": [
				{
					"internalType": "uint256",
					"name": "",
					"type": "uint256"
				}
			],
			"stateMutability": "view",
			"type": "function"
		}
	],
	"bytecode": "0x60a06040523480156200001157600080fd5b50604051620049d8380380620049d883398181016040528101906200003791906200043d565b600160008190555060005b83518110156200012257838181518110620000625762000061620004b8565b5b60200260200101516020015160016000868481518110620000885762000087620004b8565b5b60200260200101516000015173ffffffffffffffffffffffffffffffffffffffff1673ffffffffffffffffffffffffffffffffffffffff16815260200190815260200160002060006101000a81548173ffffffffffffffffffffffffffffffffffffffff021916908373ffffffffffffffffffffffffffffffffffffffff1602179055508080620001199062000516565b91505062000042565b508173ffffffffffffffffffffffffffffffffffffffff1660808173ffffffffffffffffffffffffffffffffffffffff168152505033600760006101000a81548173ffffffffffffffffffffffffffffffffffffffff021916908373ffffffffffffffffffffffffffffffffffffffff160217905550603c81620001a7919062000563565b600581905550505050620005ae565b6000604051905090565b600080fd5b600080fd5b600080fd5b6000601f19601f8301169050919050565b7f4e487b7100000000000000000000000000000000000000000000000000000000600052604160045260246000fd5b6200021a82620001cf565b810181811067ffffffffffffffff821117156200023c576200023b620001e0565b5b80604052505050565b600062000251620001b6565b90506200025f82826200020f565b919050565b600067ffffffffffffffff821115620002825762000281620001e0565b5b602082029050602081019050919050565b600080fd5b600080fd5b600073ffffffffffffffffffffffffffffffffffffffff82169050919050565b6000620002ca826200029d565b9050919050565b620002dc81620002bd565b8114620002e857600080fd5b50565b600081519050620002fc81620002d1565b92915050565b6000604082840312156200031b576200031a62000298565b5b62000327604062000245565b905060006200033984828501620002eb565b60008301525060206200034f84828501620002eb565b60208301525092915050565b6000620003726200036c8462000264565b62000245565b9050808382526020820190506040840283018581111562000398576200039762000293565b5b835b81811015620003c55780620003b0888262000302565b8452602084019350506040810190506200039a565b5050509392505050565b600082601f830112620003e757620003e6620001ca565b5b8151620003f98482602086016200035b565b91505092915050565b6000819050919050565b620004178162000402565b81146200042357600080fd5b50565b60008151905062000437816200040c565b92915050565b600080600060608486031215620004595762000458620001c0565b5b600084015167ffffffffffffffff8111156200047a5762000479620001c5565b5b6200048886828701620003cf565b93505060206200049b86828701620002eb565b9250506040620004ae8682870162000426565b9150509250925092565b7f4e487b7100000000000000000000000000000000000000000000000000000000600052603260045260246000fd5b7f4e487b7100000000000000000000000000000000000000000000000000000000600052601160045260246000fd5b6000620005238262000402565b91507fffffffffffffffffffffffffffffffffffffffffffffffffffffffffffffffff8203620005585762000557620004e7565b5b600182019050919050565b6000620005708262000402565b91506200057d8362000402565b92508282026200058d8162000402565b91508282048414831517620005a757620005a6620004e7565b5b5092915050565b60805161440e620005ca60003960006107ef015261440e6000f3fe608060405234801561001057600080fd5b506004361061012c5760003560e01c80635138b08c116100ad578063bf6af8be11610071578063bf6af8be14610394578063c2e0e7e0146103b2578063d59feb6a146103ce578063e6f7fbd4146103ec578063f8a206fa1461041d5761012c565b80635138b08c146102f457806368af2eae146103105780637887df851461032c578063791bb4ef14610348578063b34171b5146103645761012c565b8063194d07ca116100f4578063194d07ca146102105780631e8a0b321461024057806333d31bf51461027057806344f91c1e146102a05780635090d0c6146102d65761012c565b80630d587c1e14610131578063102784981461016157806316002f4a1461019157806316345f18146101af5780631886aa93146101e0575b600080fd5b61014b600480360381019061014691906128ce565b61044d565b60405161015891906129cc565b60405180910390f35b61017b600480360381019061017691906128ce565b610579565b60405161018891906129fd565b60405180910390f35b6101996105d7565b6040516101a691906129fd565b60405180910390f35b6101c960048036038101906101c49190612a18565b6105dd565b6040516101d7929190612a7a565b60405180910390f35b6101fa60048036038101906101f59190612aa3565b6106d7565b6040516102079190612b11565b60405180910390f35b61022a60048036038101906102259190612a18565b6107eb565b6040516102379190612b11565b60405180910390f35b61025a600480360381019061025591906128ce565b610851565b60405161026791906129fd565b60405180910390f35b61028a60048036038101906102859190612a18565b610890565b6040516102979190612b3b565b60405180910390f35b6102ba60048036038101906102b591906128ce565b6108c3565b6040516102cd9796959493929190612bee565b60405180910390f35b6102de61095f565b6040516102eb91906129fd565b60405180910390f35b61030e600480360381019061030991906128ce565b610965565b005b61032a60048036038101906103259190612c5d565b61101a565b005b61034660048036038101906103419190612cc0565b611103565b005b610362600480360381019061035d9190612d27565b6114ec565b005b61037e60048036038101906103799190612db4565b61194b565b60405161038b9190612e67565b60405180910390f35b61039c611ab1565b6040516103a991906129fd565b60405180910390f35b6103cc60048036038101906103c79190612e82565b611ab7565b005b6103d66120d8565b6040516103e39190612fc7565b60405180910390f35b61040660048036038101906104019190612c5d565b6121e3565b604051610414929190612fe9565b60405180910390f35b610437600480360381019061043291906128ce565b612257565b60405161044491906130a2565b60405180910390f35b60606000600660008573ffffffffffffffffffffffffffffffffffffffff1673ffffffffffffffffffffffffffffffffffffffff168152602001908152602001600020600084815260200190815260200160002060080180548060200260200160405190810160405280929190818152602001828054801561052457602002820191906000526020600020905b8160009054906101000a900473ffffffffffffffffffffffffffffffffffffffff1673ffffffffffffffffffffffffffffffffffffffff16815260200190600101908083116104da575b50505050509050600081510361056f576040517f08c379a000000000000000000000000000000000000000000000000000000000815260040161056690613110565b60405180910390fd5b8091505092915050565b6000600660008473ffffffffffffffffffffffffffffffffffffffff1673ffffffffffffffffffffffffffffffffffffffff168152602001908152602001600020600083815260200190815260200160002060030154905092915050565b60035481565b60008060008373ffffffffffffffffffffffffffffffffffffffff1663feaf968c6040518163ffffffff1660e01b815260040160a060405180830381865afa15801561062d573d6000803e3d6000fd5b505050506040513d601f19601f8201168201806040525081019061065191906131b3565b50505091505060008473ffffffffffffffffffffffffffffffffffffffff1663313ce5676040518163ffffffff1660e01b8152600401602060405180830381865afa1580156106a4573d6000803e3d6000fd5b505050506040513d601f19601f820116820180604052508101906106c8919061325a565b90508181935093505050915091565b600080849050828173ffffffffffffffffffffffffffffffffffffffff166370a08231866040518263ffffffff1660e01b81526004016107179190612b3b565b602060405180830381865afa158015610734573d6000803e3d6000fd5b505050506040513d601f19601f820116820180604052508101906107589190613287565b101580156107e15750828173ffffffffffffffffffffffffffffffffffffffff1663dd62ed3e86306040518363ffffffff1660e01b815260040161079d929190612fe9565b602060405180830381865afa1580156107ba573d6000803e3d6000fd5b505050506040513d601f19601f820116820180604052508101906107de9190613287565b10155b9150509392505050565b60007f000000000000000000000000000000000000000000000000000000000000000073ffffffffffffffffffffffffffffffffffffffff168273ffffffffffffffffffffffffffffffffffffffff161461084757600061084a565b60015b9050919050565b600080600061085f856105dd565b9150915080600a6108709190613416565b828561087c9190613461565b61088691906134d2565b9250505092915050565b60016020528060005260406000206000915054906101000a900473ffffffffffffffffffffffffffffffffffffffff1681565b6006602052816000526040600020602052806000526040600020600091509150508060000160009054906101000a900473ffffffffffffffffffffffffffffffffffffffff16908060010160009054906101000a900473ffffffffffffffffffffffffffffffffffffffff16908060020154908060030154908060040154908060050154908060060160009054906101000a900460ff16905087565b60045481565b6000600660008473ffffffffffffffffffffffffffffffffffffffff1673ffffffffffffffffffffffffffffffffffffffff168152602001908152602001600020600083815260200190815260200160002090508060010160009054906101000a900473ffffffffffffffffffffffffffffffffffffffff1673ffffffffffffffffffffffffffffffffffffffff163373ffffffffffffffffffffffffffffffffffffffff1614610a4b576040517f08c379a0000000000000000000000000000000000000000000000000000000008152600401610a429061354f565b60405180910390fd5b80600501544211610a91576040517f08c379a0000000000000000000000000000000000000000000000000000000008152600401610a88906135bb565b60405180910390fd5b60008060008060005b8560080180549050811015610c8057856008018181548110610abf57610abe6135db565b5b9060005260206000200160009054906101000a900473ffffffffffffffffffffffffffffffffffffffff16945060008660070160008773ffffffffffffffffffffffffffffffffffffffff1673ffffffffffffffffffffffffffffffffffffffff16815260200190815260200160002060405180606001604052908160008201548152602001600182015481526020016002820160009054906101000a900473ffffffffffffffffffffffffffffffffffffffff1673ffffffffffffffffffffffffffffffffffffffff1673ffffffffffffffffffffffffffffffffffffffff168152505090506000816000015103610bb85750610c6d565b806000015194506000816040015190506000610bd3826107eb565b610c4557610c40600160008473ffffffffffffffffffffffffffffffffffffffff1673ffffffffffffffffffffffffffffffffffffffff16815260200190815260200160002060009054906101000a900473ffffffffffffffffffffffffffffffffffffffff1688610851565b610c47565b865b905085811115610c6957610c5c8289896106d7565b15610c68578095508794505b5b5050505b8080610c789061360a565b915050610a9a565b50600073ffffffffffffffffffffffffffffffffffffffff168173ffffffffffffffffffffffffffffffffffffffff161480610cbf5750846003015482105b15610de557338560010160006101000a81548173ffffffffffffffffffffffffffffffffffffffff021916908373ffffffffffffffffffffffffffffffffffffffff16021790555060058560060160006101000a81548160ff02191690836005811115610d2f57610d2e612b77565b5b02179055508673ffffffffffffffffffffffffffffffffffffffff166342842e0e3033896040518463ffffffff1660e01b8152600401610d7193929190613652565b600060405180830381600087803b158015610d8b57600080fd5b505af1158015610d9f573d6000803e3d6000fd5b505050507f4c52329b429b6bc14602f8d8e34d003593c51b818a57a24fbc132479501432ad87873342604051610dd89493929190613689565b60405180910390a1611007565b60048560060160006101000a81548160ff02191690836005811115610e0d57610e0c612b77565b5b021790555060008560070160008373ffffffffffffffffffffffffffffffffffffffff1673ffffffffffffffffffffffffffffffffffffffff16815260200190815260200160002060405180606001604052908160008201548152602001600182015481526020016002820160009054906101000a900473ffffffffffffffffffffffffffffffffffffffff1673ffffffffffffffffffffffffffffffffffffffff1673ffffffffffffffffffffffffffffffffffffffff16815250509050806040015173ffffffffffffffffffffffffffffffffffffffff166323b872dd833384600001516040518463ffffffff1660e01b8152600401610f1193929190613652565b6020604051808303816000875af1158015610f30573d6000803e3d6000fd5b505050506040513d601f19601f82011682018060405250810190610f5491906136fa565b508773ffffffffffffffffffffffffffffffffffffffff166342842e0e30848a6040518463ffffffff1660e01b8152600401610f9293929190613652565b600060405180830381600087803b158015610fac57600080fd5b505af1158015610fc0573d6000803e3d6000fd5b505050507f9af79c03d71f5375aad271d2d27dc3b4227362c41a7a2ab66072e4e6592e262b888833858742604051610ffd96959493929190613727565b60405180910390a1505b6110118787612488565b50505050505050565b600760009054906101000a900473ffffffffffffffffffffffffffffffffffffffff1673ffffffffffffffffffffffffffffffffffffffff163373ffffffffffffffffffffffffffffffffffffffff16146110aa576040517f08c379a00000000000000000000000000000000000000000000000000000000081526004016110a1906137d4565b60405180910390fd5b600081036110ed576040517f08c379a00000000000000000000000000000000000000000000000000000000081526004016110e490613840565b60405180910390fd5b603c816110fa9190613461565b60058190555050565b60008203611146576040517f08c379a000000000000000000000000000000000000000000000000000000000815260040161113d906138ac565b60405180910390fd5b6000600660008673ffffffffffffffffffffffffffffffffffffffff1673ffffffffffffffffffffffffffffffffffffffff16815260200190815260200160002060008581526020019081526020016000209050806004015442101580156111b2575080600501544211155b6111f1576040517f08c379a00000000000000000000000000000000000000000000000000000000081526004016111e890613918565b60405180910390fd5b60008160070160003373ffffffffffffffffffffffffffffffffffffffff1673ffffffffffffffffffffffffffffffffffffffff16815260200190815260200160002090506000801b81600101540361127f576040517f08c379a000000000000000000000000000000000000000000000000000000000815260040161127690613984565b60405180910390fd5b60008160020160009054906101000a900473ffffffffffffffffffffffffffffffffffffffff1690506112b38133876106d7565b6112f2576040517f08c379a00000000000000000000000000000000000000000000000000000000081526004016112e9906139f0565b60405180910390fd5b848173ffffffffffffffffffffffffffffffffffffffff1663dd62ed3e33306040518363ffffffff1660e01b815260040161132e929190612fe9565b602060405180830381865afa15801561134b573d6000803e3d6000fd5b505050506040513d601f19601f8201168201806040525081019061136f9190613287565b10156113b0576040517f08c379a00000000000000000000000000000000000000000000000000000000081526004016113a790613a5c565b60405180910390fd5b60006113e53387876040516020016113c9929190613abe565b6040516020818303038152906040528051906020012084612787565b90508260010154811461142d576040517f08c379a000000000000000000000000000000000000000000000000000000000815260040161142490613b36565b60405180910390fd5b8583600001819055506002600581111561144a57611449612b77565b5b8460060160009054906101000a900460ff16600581111561146e5761146d612b77565b5b036114a15760038460060160006101000a81548160ff0219169083600581111561149b5761149a612b77565b5b02179055505b7fac1cdcb34c2f43796c50b2d0b00e98133621d7ea7593195241557dac6a5f184e88888333898b6040516114da96959493929190613b65565b60405180910390a15050505050505050565b600260005403611531576040517f08c379a000000000000000000000000000000000000000000000000000000000815260040161152890613c12565b60405180910390fd5b600260008190555060008690508073ffffffffffffffffffffffffffffffffffffffff16636352211e876040518263ffffffff1660e01b815260040161157791906129fd565b602060405180830381865afa158015611594573d6000803e3d6000fd5b505050506040513d601f19601f820116820180604052508101906115b89190613c47565b73ffffffffffffffffffffffffffffffffffffffff163373ffffffffffffffffffffffffffffffffffffffff1614611625576040517f08c379a000000000000000000000000000000000000000000000000000000000815260040161161c90613cc0565b60405180910390fd5b42841015611668576040517f08c379a000000000000000000000000000000000000000000000000000000000815260040161165f90613d2c565b60405180910390fd5b600085116116ab576040517f08c379a00000000000000000000000000000000000000000000000000000000081526004016116a290613d98565b60405180910390fd5b600554846116b99190613db8565b8310156116fb576040517f08c379a00000000000000000000000000000000000000000000000000000000081526004016116f290613e38565b60405180910390fd5b82821161173d576040517f08c379a000000000000000000000000000000000000000000000000000000000815260040161173490613ea4565b60405180910390fd5b6000600660008973ffffffffffffffffffffffffffffffffffffffff1673ffffffffffffffffffffffffffffffffffffffff1681526020019081526020016000206000888152602001908152602001600020905060008160040154146117d8576040517f08c379a00000000000000000000000000000000000000000000000000000000081526004016117cf90613f10565b60405180910390fd5b338160010160006101000a81548173ffffffffffffffffffffffffffffffffffffffff021916908373ffffffffffffffffffffffffffffffffffffffff16021790555085816003018190555060018160060160006101000a81548160ff0219169083600581111561184c5761184b612b77565b5b0217905550848160020181905550838160040181905550828160050181905550600160035461187b9190613db8565b6003819055508173ffffffffffffffffffffffffffffffffffffffff166323b872dd33308a6040518463ffffffff1660e01b81526004016118be93929190613652565b600060405180830381600087803b1580156118d857600080fd5b505af11580156118ec573d6000803e3d6000fd5b505050507fdf179f1d286c93c679334be11420131492ab86e4d75b9598ed0ff17508273b4e888833898560020154898942604051611931989796959493929190613f30565b60405180910390a150506001600081905550505050505050565b6119536127bd565b6000600660008673ffffffffffffffffffffffffffffffffffffffff1673ffffffffffffffffffffffffffffffffffffffff1681526020019081526020016000206000858152602001908152602001600020905060008160080180549050036119f1576040517f08c379a00000000000000000000000000000000000000000000000000000000081526004016119e890613110565b60405180910390fd5b8060070160008473ffffffffffffffffffffffffffffffffffffffff1673ffffffffffffffffffffffffffffffffffffffff16815260200190815260200160002060405180606001604052908160008201548152602001600182015481526020016002820160009054906101000a900473ffffffffffffffffffffffffffffffffffffffff1673ffffffffffffffffffffffffffffffffffffffff1673ffffffffffffffffffffffffffffffffffffffff16815250509150509392505050565b60055481565b600260005403611afc576040517f08c379a0000000000000000000000000000000000000000000000000000000008152600401611af390613c12565b60405180910390fd5b60026000819055506000600660008673ffffffffffffffffffffffffffffffffffffffff1673ffffffffffffffffffffffffffffffffffffffff16815260200190815260200160002060008581526020019081526020016000209050600073ffffffffffffffffffffffffffffffffffffffff168160010160009054906101000a900473ffffffffffffffffffffffffffffffffffffffff1673ffffffffffffffffffffffffffffffffffffffff1603611beb576040517f08c379a0000000000000000000000000000000000000000000000000000000008152600401611be290613ffa565b60405180910390fd5b600760009054906101000a900473ffffffffffffffffffffffffffffffffffffffff1673ffffffffffffffffffffffffffffffffffffffff163373ffffffffffffffffffffffffffffffffffffffff1603611c7b576040517f08c379a0000000000000000000000000000000000000000000000000000000008152600401611c7290614066565b60405180910390fd5b6000801b8303611cc0576040517f08c379a0000000000000000000000000000000000000000000000000000000008152600401611cb7906140d2565b60405180910390fd5b600073ffffffffffffffffffffffffffffffffffffffff16600160008473ffffffffffffffffffffffffffffffffffffffff1673ffffffffffffffffffffffffffffffffffffffff16815260200190815260200160002060009054906101000a900473ffffffffffffffffffffffffffffffffffffffff1673ffffffffffffffffffffffffffffffffffffffff16141580611d605750611d5f826107eb565b5b611d9f576040517f08c379a0000000000000000000000000000000000000000000000000000000008152600401611d969061413e565b60405180910390fd5b8060020154421015611de6576040517f08c379a0000000000000000000000000000000000000000000000000000000008152600401611ddd906141aa565b60405180910390fd5b8060010160009054906101000a900473ffffffffffffffffffffffffffffffffffffffff1673ffffffffffffffffffffffffffffffffffffffff163373ffffffffffffffffffffffffffffffffffffffff1603611e78576040517f08c379a0000000000000000000000000000000000000000000000000000000008152600401611e6f90614216565b60405180910390fd5b4281600401541015611ebf576040517f08c379a0000000000000000000000000000000000000000000000000000000008152600401611eb690614282565b60405180910390fd5b60008160070160003373ffffffffffffffffffffffffffffffffffffffff1673ffffffffffffffffffffffffffffffffffffffff16815260200190815260200160002090506000801b816001015414611f4d576040517f08c379a0000000000000000000000000000000000000000000000000000000008152600401611f44906142ee565b60405180910390fd5b611f58338585612787565b816001018190555060016005811115611f7457611f73612b77565b5b8260060160009054906101000a900460ff166005811115611f9857611f97612b77565b5b03611fcb5760028260060160006101000a81548160ff02191690836005811115611fc557611fc4612b77565b5b02179055505b828160020160006101000a81548173ffffffffffffffffffffffffffffffffffffffff021916908373ffffffffffffffffffffffffffffffffffffffff16021790555081600801339080600181540180825580915050600190039060005260206000200160009091909190916101000a81548173ffffffffffffffffffffffffffffffffffffffff021916908373ffffffffffffffffffffffffffffffffffffffff160217905550600460008154809291906120869061360a565b91905055507fe86a7bf4f8980619e10345099db4bf2d07da85bf499e37fd7ecb0b5df95c62d8868686426040516120c0949392919061430e565b60405180910390a15050600160008190555050505050565b60606002805480602002602001604051908101604052809291908181526020016000905b828210156121da57838290600052602060002090600202016040518060400160405290816000820160009054906101000a900473ffffffffffffffffffffffffffffffffffffffff1673ffffffffffffffffffffffffffffffffffffffff1673ffffffffffffffffffffffffffffffffffffffff1681526020016001820160009054906101000a900473ffffffffffffffffffffffffffffffffffffffff1673ffffffffffffffffffffffffffffffffffffffff1673ffffffffffffffffffffffffffffffffffffffff1681525050815260200190600101906120fc565b50505050905090565b600281815481106121f357600080fd5b90600052602060002090600202016000915090508060000160009054906101000a900473ffffffffffffffffffffffffffffffffffffffff16908060010160009054906101000a900473ffffffffffffffffffffffffffffffffffffffff16905082565b60606000600660008573ffffffffffffffffffffffffffffffffffffffff1673ffffffffffffffffffffffffffffffffffffffff168152602001908152602001600020600084815260200190815260200160002060060160009054906101000a900460ff1660058111156122ce576122cd612b77565b5b905060008160ff1603612318576040518060400160405280600a81526020017f556e61737369676e6564000000000000000000000000000000000000000000008152509150612481565b60018160ff1603612360576040518060400160405280600981526020017f496e6974696174656400000000000000000000000000000000000000000000008152509150612480565b60028160ff16036123a8576040518060400160405280600681526020017f4269646465640000000000000000000000000000000000000000000000000000815250915061247f565b60038160ff16036123f0576040518060400160405280600881526020017f52657665616c6564000000000000000000000000000000000000000000000000815250915061247e565b60048160ff1603612438576040518060400160405280600881526020017f4578656375746564000000000000000000000000000000000000000000000000815250915061247d565b60058160ff160361247c576040518060400160405280600a81526020017f556e65786563757465640000000000000000000000000000000000000000000081525091505b5b5b5b5b5b5092915050565b6000600660008473ffffffffffffffffffffffffffffffffffffffff1673ffffffffffffffffffffffffffffffffffffffff1681526020019081526020016000206000838152602001908152602001600020905060008160070160008073ffffffffffffffffffffffffffffffffffffffff1673ffffffffffffffffffffffffffffffffffffffff16815260200190815260200160002060405180606001604052908160008201548152602001600182015481526020016002820160009054906101000a900473ffffffffffffffffffffffffffffffffffffffff1673ffffffffffffffffffffffffffffffffffffffff1673ffffffffffffffffffffffffffffffffffffffff1681525050905060005b826008018054905081101561269b57818360070160008560080184815481106125c5576125c46135db565b5b9060005260206000200160009054906101000a900473ffffffffffffffffffffffffffffffffffffffff1673ffffffffffffffffffffffffffffffffffffffff1673ffffffffffffffffffffffffffffffffffffffff168152602001908152602001600020600082015181600001556020820151816001015560408201518160020160006101000a81548173ffffffffffffffffffffffffffffffffffffffff021916908373ffffffffffffffffffffffffffffffffffffffff16021790555090505080806126939061360a565b915050612599565b50600660008573ffffffffffffffffffffffffffffffffffffffff1673ffffffffffffffffffffffffffffffffffffffff1681526020019081526020016000206000848152602001908152602001600020600080820160006101000a81549073ffffffffffffffffffffffffffffffffffffffff02191690556001820160006101000a81549073ffffffffffffffffffffffffffffffffffffffff021916905560028201600090556003820160009055600482016000905560058201600090556006820160006101000a81549060ff021916905560088201600061277f91906127f7565b505050505050565b600083838360405160200161279e9392919061439b565b6040516020818303038152906040528051906020012090509392505050565b60405180606001604052806000815260200160008019168152602001600073ffffffffffffffffffffffffffffffffffffffff1681525090565b50805460008255906000526020600020908101906128159190612818565b50565b5b80821115612831576000816000905550600101612819565b5090565b600080fd5b600073ffffffffffffffffffffffffffffffffffffffff82169050919050565b60006128658261283a565b9050919050565b6128758161285a565b811461288057600080fd5b50565b6000813590506128928161286c565b92915050565b6000819050919050565b6128ab81612898565b81146128b657600080fd5b50565b6000813590506128c8816128a2565b92915050565b600080604083850312156128e5576128e4612835565b5b60006128f385828601612883565b9250506020612904858286016128b9565b9150509250929050565b600081519050919050565b600082825260208201905092915050565b6000819050602082019050919050565b6129438161285a565b82525050565b6000612955838361293a565b60208301905092915050565b6000602082019050919050565b60006129798261290e565b6129838185612919565b935061298e8361292a565b8060005b838110156129bf5781516129a68882612949565b97506129b183612961565b925050600181019050612992565b5085935050505092915050565b600060208201905081810360008301526129e6818461296e565b905092915050565b6129f781612898565b82525050565b6000602082019050612a1260008301846129ee565b92915050565b600060208284031215612a2e57612a2d612835565b5b6000612a3c84828501612883565b91505092915050565b6000819050919050565b612a5881612a45565b82525050565b600060ff82169050919050565b612a7481612a5e565b82525050565b6000604082019050612a8f6000830185612a4f565b612a9c6020830184612a6b565b9392505050565b600080600060608486031215612abc57612abb612835565b5b6000612aca86828701612883565b9350506020612adb86828701612883565b9250506040612aec868287016128b9565b9150509250925092565b60008115159050919050565b612b0b81612af6565b82525050565b6000602082019050612b266000830184612b02565b92915050565b612b358161285a565b82525050565b6000602082019050612b506000830184612b2c565b92915050565b6000612b618261283a565b9050919050565b612b7181612b56565b82525050565b7f4e487b7100000000000000000000000000000000000000000000000000000000600052602160045260246000fd5b60068110612bb757612bb6612b77565b5b50565b6000819050612bc882612ba6565b919050565b6000612bd882612bba565b9050919050565b612be881612bcd565b82525050565b600060e082019050612c03600083018a612b2c565b612c106020830189612b68565b612c1d60408301886129ee565b612c2a60608301876129ee565b612c3760808301866129ee565b612c4460a08301856129ee565b612c5160c0830184612bdf565b98975050505050505050565b600060208284031215612c7357612c72612835565b5b6000612c81848285016128b9565b91505092915050565b6000819050919050565b612c9d81612c8a565b8114612ca857600080fd5b50565b600081359050612cba81612c94565b92915050565b60008060008060808587031215612cda57612cd9612835565b5b6000612ce887828801612883565b9450506020612cf9878288016128b9565b9350506040612d0a878288016128b9565b9250506060612d1b87828801612cab565b91505092959194509250565b60008060008060008060c08789031215612d4457612d43612835565b5b6000612d5289828a01612883565b9650506020612d6389828a016128b9565b9550506040612d7489828a016128b9565b9450506060612d8589828a016128b9565b9350506080612d9689828a016128b9565b92505060a0612da789828a016128b9565b9150509295509295509295565b600080600060608486031215612dcd57612dcc612835565b5b6000612ddb86828701612883565b9350506020612dec868287016128b9565b9250506040612dfd86828701612883565b9150509250925092565b612e1081612898565b82525050565b612e1f81612c8a565b82525050565b606082016000820151612e3b6000850182612e07565b506020820151612e4e6020850182612e16565b506040820151612e61604085018261293a565b50505050565b6000606082019050612e7c6000830184612e25565b92915050565b60008060008060808587031215612e9c57612e9b612835565b5b6000612eaa87828801612883565b9450506020612ebb878288016128b9565b9350506040612ecc87828801612cab565b9250506060612edd87828801612883565b91505092959194509250565b600081519050919050565b600082825260208201905092915050565b6000819050602082019050919050565b604082016000820151612f2b600085018261293a565b506020820151612f3e602085018261293a565b50505050565b6000612f508383612f15565b60408301905092915050565b6000602082019050919050565b6000612f7482612ee9565b612f7e8185612ef4565b9350612f8983612f05565b8060005b83811015612fba578151612fa18882612f44565b9750612fac83612f5c565b925050600181019050612f8d565b5085935050505092915050565b60006020820190508181036000830152612fe18184612f69565b905092915050565b6000604082019050612ffe6000830185612b2c565b61300b6020830184612b2c565b9392505050565b600081519050919050565b600082825260208201905092915050565b60005b8381101561304c578082015181840152602081019050613031565b60008484015250505050565b6000601f19601f8301169050919050565b600061307482613012565b61307e818561301d565b935061308e81856020860161302e565b61309781613058565b840191505092915050565b600060208201905081810360008301526130bc8184613069565b905092915050565b7f6e6f206269647300000000000000000000000000000000000000000000000000600082015250565b60006130fa60078361301d565b9150613105826130c4565b602082019050919050565b60006020820190508181036000830152613129816130ed565b9050919050565b600069ffffffffffffffffffff82169050919050565b61314f81613130565b811461315a57600080fd5b50565b60008151905061316c81613146565b92915050565b61317b81612a45565b811461318657600080fd5b50565b60008151905061319881613172565b92915050565b6000815190506131ad816128a2565b92915050565b600080600080600060a086880312156131cf576131ce612835565b5b60006131dd8882890161315d565b95505060206131ee88828901613189565b94505060406131ff8882890161319e565b93505060606132108882890161319e565b92505060806132218882890161315d565b9150509295509295909350565b61323781612a5e565b811461324257600080fd5b50565b6000815190506132548161322e565b92915050565b6000602082840312156132705761326f612835565b5b600061327e84828501613245565b91505092915050565b60006020828403121561329d5761329c612835565b5b60006132ab8482850161319e565b91505092915050565b7f4e487b7100000000000000000000000000000000000000000000000000000000600052601160045260246000fd5b60008160011c9050919050565b6000808291508390505b600185111561333a57808604811115613316576133156132b4565b5b60018516156133255780820291505b8081029050613333856132e3565b94506132fa565b94509492505050565b600082613353576001905061340f565b81613361576000905061340f565b81600181146133775760028114613381576133b0565b600191505061340f565b60ff841115613393576133926132b4565b5b8360020a9150848211156133aa576133a96132b4565b5b5061340f565b5060208310610133831016604e8410600b84101617156133e55782820a9050838111156133e0576133df6132b4565b5b61340f565b6133f284848460016132f0565b92509050818404811115613409576134086132b4565b5b81810290505b9392505050565b600061342182612898565b915061342c83612a5e565b92506134597fffffffffffffffffffffffffffffffffffffffffffffffffffffffffffffffff8484613343565b905092915050565b600061346c82612898565b915061347783612898565b925082820261348581612898565b9150828204841483151761349c5761349b6132b4565b5b5092915050565b7f4e487b7100000000000000000000000000000000000000000000000000000000600052601260045260246000fd5b60006134dd82612898565b91506134e883612898565b9250826134f8576134f76134a3565b5b828204905092915050565b7f6e6f742061756374696f6e206f776e6572000000000000000000000000000000600082015250565b600061353960118361301d565b915061354482613503565b602082019050919050565b600060208201905081810360008301526135688161352c565b9050919050565b7f72657665616c207068617365206e6f74206f7665720000000000000000000000600082015250565b60006135a560158361301d565b91506135b08261356f565b602082019050919050565b600060208201905081810360008301526135d481613598565b9050919050565b7f4e487b7100000000000000000000000000000000000000000000000000000000600052603260045260246000fd5b600061361582612898565b91507fffffffffffffffffffffffffffffffffffffffffffffffffffffffffffffffff8203613647576136466132b4565b5b600182019050919050565b60006060820190506136676000830186612b2c565b6136746020830185612b2c565b61368160408301846129ee565b949350505050565b600060808201905061369e6000830187612b2c565b6136ab60208301866129ee565b6136b86040830185612b2c565b6136c560608301846129ee565b95945050505050565b6136d781612af6565b81146136e257600080fd5b50565b6000815190506136f4816136ce565b92915050565b6000602082840312156137105761370f612835565b5b600061371e848285016136e5565b91505092915050565b600060c08201905061373c6000830189612b2c565b61374960208301886129ee565b6137566040830187612b2c565b6137636060830186612b2c565b61377060808301856129ee565b61377d60a08301846129ee565b979650505050505050565b7f63616e6e6f7420696e6372656173652074696d65000000000000000000000000600082015250565b60006137be60148361301d565b91506137c982613788565b602082019050919050565b600060208201905081810360008301526137ed816137b1565b9050919050565b7f61756374696f6e206475726174696f6e2063616e6e6f74206265207a65726f00600082015250565b600061382a601f8361301d565b9150613835826137f4565b602082019050919050565b600060208201905081810360008301526138598161381d565b9050919050565b7f7a65726f206269642076616c7565000000000000000000000000000000000000600082015250565b6000613896600e8361301d565b91506138a182613860565b602082019050919050565b600060208201905081810360008301526138c581613889565b9050919050565b7f6e6f7420696e2072657665616c20706861736500000000000000000000000000600082015250565b600061390260138361301d565b915061390d826138cc565b602082019050919050565b60006020820190508181036000830152613931816138f5565b9050919050565b7f6e6f2062696420636f6d6d69746d656e74000000000000000000000000000000600082015250565b600061396e60118361301d565b915061397982613938565b602082019050919050565b6000602082019050818103600083015261399d81613961565b9050919050565b7f696e7375666620746f6b656e2062616c616e6365206f7220617070726f76616c600082015250565b60006139da60208361301d565b91506139e5826139a4565b602082019050919050565b60006020820190508181036000830152613a09816139cd565b9050919050565b7f6c6f7720746f6b656e20616c6c6f77616e636500000000000000000000000000600082015250565b6000613a4660138361301d565b9150613a5182613a10565b602082019050919050565b60006020820190508181036000830152613a7581613a39565b9050919050565b6000819050919050565b613a97613a9282612898565b613a7c565b82525050565b6000819050919050565b613ab8613ab382612c8a565b613a9d565b82525050565b6000613aca8285613a86565b602082019150613ada8284613aa7565b6020820191508190509392505050565b7f696e76616c696420626964206861736800000000000000000000000000000000600082015250565b6000613b2060108361301d565b9150613b2b82613aea565b602082019050919050565b60006020820190508181036000830152613b4f81613b13565b9050919050565b613b5f81612c8a565b82525050565b600060c082019050613b7a6000830189612b2c565b613b8760208301886129ee565b613b946040830187613b56565b613ba16060830186612b2c565b613bae6080830185613b56565b613bbb60a08301846129ee565b979650505050505050565b7f5265656e7472616e637947756172643a207265656e7472616e742063616c6c00600082015250565b6000613bfc601f8361301d565b9150613c0782613bc6565b602082019050919050565b60006020820190508181036000830152613c2b81613bef565b9050919050565b600081519050613c418161286c565b92915050565b600060208284031215613c5d57613c5c612835565b5b6000613c6b84828501613c32565b91505092915050565b7f6e6f74206f776e65720000000000000000000000000000000000000000000000600082015250565b6000613caa60098361301d565b9150613cb582613c74565b602082019050919050565b60006020820190508181036000830152613cd981613c9d565b9050919050565b7f696e76616c69642061756374696f6e2073746172742074696d65000000000000600082015250565b6000613d16601a8361301d565b9150613d2182613ce0565b602082019050919050565b60006020820190508181036000830152613d4581613d09565b9050919050565b7f61756374696f6e2070726963652063616e6e6f74206265207a65726f00000000600082015250565b6000613d82601c8361301d565b9150613d8d82613d4c565b602082019050919050565b60006020820190508181036000830152613db181613d75565b9050919050565b6000613dc382612898565b9150613dce83612898565b9250828201905080821115613de657613de56132b4565b5b92915050565b7f696e76616c69642061756374696f6e20656e642074696d650000000000000000600082015250565b6000613e2260188361301d565b9150613e2d82613dec565b602082019050919050565b60006020820190508181036000830152613e5181613e15565b9050919050565b7f696e76616c69642072657665616c206475726174696f6e2074696d6500000000600082015250565b6000613e8e601c8361301d565b9150613e9982613e58565b602082019050919050565b60006020820190508181036000830152613ebd81613e81565b9050919050565b7f61756374696f6e20616c72656164792065786973740000000000000000000000600082015250565b6000613efa60158361301d565b9150613f0582613ec4565b602082019050919050565b60006020820190508181036000830152613f2981613eed565b9050919050565b600061010082019050613f46600083018b612b2c565b613f53602083018a6129ee565b613f606040830189612b2c565b613f6d60608301886129ee565b613f7a60808301876129ee565b613f8760a08301866129ee565b613f9460c08301856129ee565b613fa160e08301846129ee565b9998505050505050505050565b7f6e6f6e2d6578697374656e742061756374696f6e206974656d00000000000000600082015250565b6000613fe460198361301d565b9150613fef82613fae565b602082019050919050565b6000602082019050818103600083015261401381613fd7565b9050919050565b7f6465706c6f7965722063616e6e6f742062696400000000000000000000000000600082015250565b600061405060138361301d565b915061405b8261401a565b602082019050919050565b6000602082019050818103600083015261407f81614043565b9050919050565b7f7a65726f2062696420636f6d6d69746d656e7400000000000000000000000000600082015250565b60006140bc60138361301d565b91506140c782614086565b602082019050919050565b600060208201905081810360008301526140eb816140af565b9050919050565b7f696e76616c69642062696420746f6b656e000000000000000000000000000000600082015250565b600061412860118361301d565b9150614133826140f2565b602082019050919050565b600060208201905081810360008301526141578161411b565b9050919050565b7f61756374696f6e20686173206e6f742073746172746564000000000000000000600082015250565b600061419460178361301d565b915061419f8261415e565b602082019050919050565b600060208201905081810360008301526141c381614187565b9050919050565b7f61756374696f6e2073656c6c65722063616e6e6f742062696400000000000000600082015250565b600061420060198361301d565b915061420b826141ca565b602082019050919050565b6000602082019050818103600083015261422f816141f3565b9050919050565b7f61756374696f6e2068617320656e646564000000000000000000000000000000600082015250565b600061426c60118361301d565b915061427782614236565b602082019050919050565b6000602082019050818103600083015261429b8161425f565b9050919050565b7f696e697469616c697a656420626964436f6d6d69746d656e7400000000000000600082015250565b60006142d860198361301d565b91506142e3826142a2565b602082019050919050565b60006020820190508181036000830152614307816142cb565b9050919050565b60006080820190506143236000830187612b2c565b61433060208301866129ee565b61433d6040830185613b56565b61434a60608301846129ee565b95945050505050565b60008160601b9050919050565b600061436b82614353565b9050919050565b600061437d82614360565b9050919050565b6143956143908261285a565b614372565b82525050565b60006143a78286614384565b6014820191506143b78285613aa7565b6020820191506143c78284614384565b60148201915081905094935050505056fea26469706673582212205892b309efcab2e59e37c1fa52a054f03297a4a1589e5569521a9f4077a1202c64736f6c63430008110033",
	"linkReferences": {},
	"deployedLinkReferences": {}
}