{
	"_format": "hh-sol-artifact-1",
	"contractName": "MockToken",
	"sourceName": "contracts/MockToken.sol",
	"abi": [
		{
			"inputs": [
				{
					"internalType": "string",
					"name": "_name",
					"type": "string"
				},
				{
					"internalType": "string",
					"name": "_symbol",
					"type": "string"
				}
			],
			"stateMutability": "nonpayable",
			"type": "constructor"
		},
		{
			"anonymous": false,
			"inputs": [
				{
					"indexed": true,
					"internalType": "address",
					"name": "owner",
					"type": "address"
				},
				{
					"indexed": true,
					"internalType": "address",
					"name": "spender",
					"type": "address"
				},
				{
					"indexed": false,
					"internalType": "uint256",
					"name": "value",
					"type": "uint256"
				}
			],
			"name": "Approval",
			"type": "event"
		},
		{
			"anonymous": false,
			"inputs": [
				{
					"indexed": true,
					"internalType": "address",
					"name": "previousOwner",
					"type": "address"
				},
				{
					"indexed": true,
					"internalType": "address",
					"name": "newOwner",
					"type": "address"
				}
			],
			"name": "OwnershipTransferred",
			"type": "event"
		},
		{
			"anonymous": false,
			"inputs": [
				{
					"indexed": true,
					"internalType": "address",
					"name": "from",
					"type": "address"
				},
				{
					"indexed": true,
					"internalType": "address",
					"name": "to",
					"type": "address"
				},
				{
					"indexed": false,
					"internalType": "uint256",
					"name": "value",
					"type": "uint256"
				}
			],
			"name": "Transfer",
			"type": "event"
		},
		{
			"inputs": [
				{
					"internalType": "address",
					"name": "owner",
					"type": "address"
				},
				{
					"internalType": "address",
					"name": "spender",
					"type": "address"
				}
			],
			"name": "allowance",
			"outputs": [
				{
					"internalType": "uint256",
					"name": "",
					"type": "uint256"
				}
			],
			"stateMutability": "view",
			"type": "function"
		},
		{
			"inputs": [
				{
					"internalType": "address",
					"name": "spender",
					"type": "address"
				},
				{
					"internalType": "uint256",
					"name": "amount",
					"type": "uint256"
				}
			],
			"name": "approve",
			"outputs": [
				{
					"internalType": "bool",
					"name": "",
					"type": "bool"
				}
			],
			"stateMutability": "nonpayable",
			"type": "function"
		},
		{
			"inputs": [
				{
					"internalType": "address",
					"name": "account",
					"type": "address"
				}
			],
			"name": "balanceOf",
			"outputs": [
				{
					"internalType": "uint256",
					"name": "",
					"type": "uint256"
				}
			],
			"stateMutability": "view",
			"type": "function"
		},
		{
			"inputs": [],
			"name": "decimals",
			"outputs": [
				{
					"internalType": "uint8",
					"name": "",
					"type": "uint8"
				}
			],
			"stateMutability": "view",
			"type": "function"
		},
		{
			"inputs": [
				{
					"internalType": "address",
					"name": "spender",
					"type": "address"
				},
				{
					"internalType": "uint256",
					"name": "subtractedValue",
					"type": "uint256"
				}
			],
			"name": "decreaseAllowance",
			"outputs": [
				{
					"internalType": "bool",
					"name": "",
					"type": "bool"
				}
			],
			"stateMutability": "nonpayable",
			"type": "function"
		},
		{
			"inputs": [
				{
					"internalType": "address",
					"name": "spender",
					"type": "address"
				},
				{
					"internalType": "uint256",
					"name": "addedValue",
					"type": "uint256"
				}
			],
			"name": "increaseAllowance",
			"outputs": [
				{
					"internalType": "bool",
					"name": "",
					"type": "bool"
				}
			],
			"stateMutability": "nonpayable",
			"type": "function"
		},
		{
			"inputs": [
				{
					"internalType": "uint256",
					"name": "amount",
					"type": "uint256"
				}
			],
			"name": "mintToken",
			"outputs": [],
			"stateMutability": "nonpayable",
			"type": "function"
		},
		{
			"inputs": [],
			"name": "name",
			"outputs": [
				{
					"internalType": "string",
					"name": "",
					"type": "string"
				}
			],
			"stateMutability": "view",
			"type": "function"
		},
		{
			"inputs": [],
			"name": "owner",
			"outputs": [
				{
					"internalType": "address",
					"name": "",
					"type": "address"
				}
			],
			"stateMutability": "view",
			"type": "function"
		},
		{
			"inputs": [],
			"name": "renounceOwnership",
			"outputs": [],
			"stateMutability": "nonpayable",
			"type": "function"
		},
		{
			"inputs": [],
			"name": "symbol",
			"outputs": [
				{
					"internalType": "string",
					"name": "",
					"type": "string"
				}
			],
			"stateMutability": "view",
			"type": "function"
		},
		{
			"inputs": [],
			"name": "totalSupply",
			"outputs": [
				{
					"internalType": "uint256",
					"name": "",
					"type": "uint256"
				}
			],
			"stateMutability": "view",
			"type": "function"
		},
		{
			"inputs": [
				{
					"internalType": "address",
					"name": "to",
					"type": "address"
				},
				{
					"internalType": "uint256",
					"name": "amount",
					"type": "uint256"
				}
			],
			"name": "transfer",
			"outputs": [
				{
					"internalType": "bool",
					"name": "",
					"type": "bool"
				}
			],
			"stateMutability": "nonpayable",
			"type": "function"
		},
		{
			"inputs": [
				{
					"internalType": "address",
					"name": "from",
					"type": "address"
				},
				{
					"internalType": "address",
					"name": "to",
					"type": "address"
				},
				{
					"internalType": "uint256",
					"name": "amount",
					"type": "uint256"
				}
			],
			"name": "transferFrom",
			"outputs": [
				{
					"internalType": "bool",
					"name": "",
					"type": "bool"
				}
			],
			"stateMutability": "nonpayable",
			"type": "function"
		},
		{
			"inputs": [
				{
					"internalType": "address",
					"name": "newOwner",
					"type": "address"
				}
			],
			"name": "transferOwnership",
			"outputs": [],
			"stateMutability": "nonpayable",
			"type": "function"
		}
	],
	"bytecode": "0x60806040523480156200001157600080fd5b506040516200226f3803806200226f8339818101604052810190620000379190620004c6565b8181620000596200004d620000e460201b60201c565b620000ec60201b60201c565b81600490816200006a919062000796565b5080600590816200007c919062000796565b5050506200009b3369152d02c7e14af6800000620001b060201b60201c565b33600660006101000a81548173ffffffffffffffffffffffffffffffffffffffff021916908373ffffffffffffffffffffffffffffffffffffffff160217905550505062000998565b600033905090565b60008060009054906101000a900473ffffffffffffffffffffffffffffffffffffffff169050816000806101000a81548173ffffffffffffffffffffffffffffffffffffffff021916908373ffffffffffffffffffffffffffffffffffffffff1602179055508173ffffffffffffffffffffffffffffffffffffffff168173ffffffffffffffffffffffffffffffffffffffff167f8be0079c531659141344cd1fd0a4f28419497f9722a3daafe3b4186f6b6457e060405160405180910390a35050565b600073ffffffffffffffffffffffffffffffffffffffff168273ffffffffffffffffffffffffffffffffffffffff160362000222576040517f08c379a00000000000000000000000000000000000000000000000000000000081526004016200021990620008de565b60405180910390fd5b62000236600083836200032960201b60201c565b80600360008282546200024a91906200092f565b9250508190555080600160008473ffffffffffffffffffffffffffffffffffffffff1673ffffffffffffffffffffffffffffffffffffffff1681526020019081526020016000206000828254620002a291906200092f565b925050819055508173ffffffffffffffffffffffffffffffffffffffff16600073ffffffffffffffffffffffffffffffffffffffff167fddf252ad1be2c89b69c2b068fc378daa952ba7f163c4a11628f55a4df523b3ef836040516200030991906200097b565b60405180910390a362000325600083836200032e60201b60201c565b5050565b505050565b505050565b6000604051905090565b600080fd5b600080fd5b600080fd5b600080fd5b6000601f19601f8301169050919050565b7f4e487b7100000000000000000000000000000000000000000000000000000000600052604160045260246000fd5b6200039c8262000351565b810181811067ffffffffffffffff82111715620003be57620003bd62000362565b5b80604052505050565b6000620003d362000333565b9050620003e1828262000391565b919050565b600067ffffffffffffffff82111562000404576200040362000362565b5b6200040f8262000351565b9050602081019050919050565b60005b838110156200043c5780820151818401526020810190506200041f565b60008484015250505050565b60006200045f6200045984620003e6565b620003c7565b9050828152602081018484840111156200047e576200047d6200034c565b5b6200048b8482856200041c565b509392505050565b600082601f830112620004ab57620004aa62000347565b5b8151620004bd84826020860162000448565b91505092915050565b60008060408385031215620004e057620004df6200033d565b5b600083015167ffffffffffffffff81111562000501576200050062000342565b5b6200050f8582860162000493565b925050602083015167ffffffffffffffff81111562000533576200053262000342565b5b620005418582860162000493565b9150509250929050565b600081519050919050565b7f4e487b7100000000000000000000000000000000000000000000000000000000600052602260045260246000fd5b600060028204905060018216806200059e57607f821691505b602082108103620005b457620005b362000556565b5b50919050565b60008190508160005260206000209050919050565b60006020601f8301049050919050565b600082821b905092915050565b6000600883026200061e7fffffffffffffffffffffffffffffffffffffffffffffffffffffffffffffffff82620005df565b6200062a8683620005df565b95508019841693508086168417925050509392505050565b6000819050919050565b6000819050919050565b600062000677620006716200066b8462000642565b6200064c565b62000642565b9050919050565b6000819050919050565b620006938362000656565b620006ab620006a2826200067e565b848454620005ec565b825550505050565b600090565b620006c2620006b3565b620006cf81848462000688565b505050565b5b81811015620006f757620006eb600082620006b8565b600181019050620006d5565b5050565b601f82111562000746576200071081620005ba565b6200071b84620005cf565b810160208510156200072b578190505b620007436200073a85620005cf565b830182620006d4565b50505b505050565b600082821c905092915050565b60006200076b600019846008026200074b565b1980831691505092915050565b600062000786838362000758565b9150826002028217905092915050565b620007a1826200054b565b67ffffffffffffffff811115620007bd57620007bc62000362565b5b620007c9825462000585565b620007d6828285620006fb565b600060209050601f8311600181146200080e5760008415620007f9578287015190505b62000805858262000778565b86555062000875565b601f1984166200081e86620005ba565b60005b82811015620008485784890151825560018201915060208501945060208101905062000821565b8683101562000868578489015162000864601f89168262000758565b8355505b6001600288020188555050505b505050505050565b600082825260208201905092915050565b7f45524332303a206d696e7420746f20746865207a65726f206164647265737300600082015250565b6000620008c6601f836200087d565b9150620008d3826200088e565b602082019050919050565b60006020820190508181036000830152620008f981620008b7565b9050919050565b7f4e487b7100000000000000000000000000000000000000000000000000000000600052601160045260246000fd5b60006200093c8262000642565b9150620009498362000642565b925082820190508082111562000964576200096362000900565b5b92915050565b620009758162000642565b82525050565b60006020820190506200099260008301846200096a565b92915050565b6118c780620009a86000396000f3fe608060405234801561001057600080fd5b50600436106100f55760003560e01c8063715018a611610097578063a9059cbb11610066578063a9059cbb1461028a578063c634d032146102ba578063dd62ed3e146102d6578063f2fde38b14610306576100f5565b8063715018a6146102145780638da5cb5b1461021e57806395d89b411461023c578063a457c2d71461025a576100f5565b806323b872dd116100d357806323b872dd14610166578063313ce5671461019657806339509351146101b457806370a08231146101e4576100f5565b806306fdde03146100fa578063095ea7b31461011857806318160ddd14610148575b600080fd5b610102610322565b60405161010f9190610f77565b60405180910390f35b610132600480360381019061012d9190611032565b6103b4565b60405161013f919061108d565b60405180910390f35b6101506103d7565b60405161015d91906110b7565b60405180910390f35b610180600480360381019061017b91906110d2565b6103e1565b60405161018d919061108d565b60405180910390f35b61019e610410565b6040516101ab9190611141565b60405180910390f35b6101ce60048036038101906101c99190611032565b610419565b6040516101db919061108d565b60405180910390f35b6101fe60048036038101906101f9919061115c565b610450565b60405161020b91906110b7565b60405180910390f35b61021c610499565b005b6102266104ad565b6040516102339190611198565b60405180910390f35b6102446104d6565b6040516102519190610f77565b60405180910390f35b610274600480360381019061026f9190611032565b610568565b604051610281919061108d565b60405180910390f35b6102a4600480360381019061029f9190611032565b6105df565b6040516102b1919061108d565b60405180910390f35b6102d460048036038101906102cf91906111b3565b610602565b005b6102f060048036038101906102eb91906111e0565b610652565b6040516102fd91906110b7565b60405180910390f35b610320600480360381019061031b919061115c565b6106d9565b005b6060600480546103319061124f565b80601f016020809104026020016040519081016040528092919081815260200182805461035d9061124f565b80156103aa5780601f1061037f576101008083540402835291602001916103aa565b820191906000526020600020905b81548152906001019060200180831161038d57829003601f168201915b5050505050905090565b6000806103bf61075c565b90506103cc818585610764565b600191505092915050565b6000600354905090565b6000806103ec61075c565b90506103f985828561092d565b6104048585856109b9565b60019150509392505050565b60006012905090565b60008061042461075c565b90506104458185856104368589610652565b61044091906112af565b610764565b600191505092915050565b6000600160008373ffffffffffffffffffffffffffffffffffffffff1673ffffffffffffffffffffffffffffffffffffffff168152602001908152602001600020549050919050565b6104a1610c3b565b6104ab6000610cb9565b565b60008060009054906101000a900473ffffffffffffffffffffffffffffffffffffffff16905090565b6060600580546104e59061124f565b80601f01602080910402602001604051908101604052809291908181526020018280546105119061124f565b801561055e5780601f106105335761010080835404028352916020019161055e565b820191906000526020600020905b81548152906001019060200180831161054157829003601f168201915b5050505050905090565b60008061057361075c565b905060006105818286610652565b9050838110156105c6576040517f08c379a00000000000000000000000000000000000000000000000000000000081526004016105bd90611355565b60405180910390fd5b6105d38286868403610764565b60019250505092915050565b6000806105ea61075c565b90506105f78185856109b9565b600191505092915050565b60008103610645576040517f08c379a000000000000000000000000000000000000000000000000000000000815260040161063c906113c1565b60405180910390fd5b61064f3382610d7d565b50565b6000600260008473ffffffffffffffffffffffffffffffffffffffff1673ffffffffffffffffffffffffffffffffffffffff16815260200190815260200160002060008373ffffffffffffffffffffffffffffffffffffffff1673ffffffffffffffffffffffffffffffffffffffff16815260200190815260200160002054905092915050565b6106e1610c3b565b600073ffffffffffffffffffffffffffffffffffffffff168173ffffffffffffffffffffffffffffffffffffffff1603610750576040517f08c379a000000000000000000000000000000000000000000000000000000000815260040161074790611453565b60405180910390fd5b61075981610cb9565b50565b600033905090565b600073ffffffffffffffffffffffffffffffffffffffff168373ffffffffffffffffffffffffffffffffffffffff16036107d3576040517f08c379a00000000000000000000000000000000000000000000000000000000081526004016107ca906114e5565b60405180910390fd5b600073ffffffffffffffffffffffffffffffffffffffff168273ffffffffffffffffffffffffffffffffffffffff1603610842576040517f08c379a000000000000000000000000000000000000000000000000000000000815260040161083990611577565b60405180910390fd5b80600260008573ffffffffffffffffffffffffffffffffffffffff1673ffffffffffffffffffffffffffffffffffffffff16815260200190815260200160002060008473ffffffffffffffffffffffffffffffffffffffff1673ffffffffffffffffffffffffffffffffffffffff168152602001908152602001600020819055508173ffffffffffffffffffffffffffffffffffffffff168373ffffffffffffffffffffffffffffffffffffffff167f8c5be1e5ebec7d5bd14f71427d1e84f3dd0314c0f7b2291e5b200ac8c7c3b9258360405161092091906110b7565b60405180910390a3505050565b60006109398484610652565b90507fffffffffffffffffffffffffffffffffffffffffffffffffffffffffffffffff81146109b357818110156109a5576040517f08c379a000000000000000000000000000000000000000000000000000000000815260040161099c906115e3565b60405180910390fd5b6109b28484848403610764565b5b50505050565b600073ffffffffffffffffffffffffffffffffffffffff168373ffffffffffffffffffffffffffffffffffffffff1603610a28576040517f08c379a0000000000000000000000000000000000000000000000000000000008152600401610a1f90611675565b60405180910390fd5b600073ffffffffffffffffffffffffffffffffffffffff168273ffffffffffffffffffffffffffffffffffffffff1603610a97576040517f08c379a0000000000000000000000000000000000000000000000000000000008152600401610a8e90611707565b60405180910390fd5b610aa2838383610edd565b6000600160008573ffffffffffffffffffffffffffffffffffffffff1673ffffffffffffffffffffffffffffffffffffffff16815260200190815260200160002054905081811015610b29576040517f08c379a0000000000000000000000000000000000000000000000000000000008152600401610b2090611799565b60405180910390fd5b818103600160008673ffffffffffffffffffffffffffffffffffffffff1673ffffffffffffffffffffffffffffffffffffffff1681526020019081526020016000208190555081600160008573ffffffffffffffffffffffffffffffffffffffff1673ffffffffffffffffffffffffffffffffffffffff1681526020019081526020016000206000828254610bbe91906112af565b925050819055508273ffffffffffffffffffffffffffffffffffffffff168473ffffffffffffffffffffffffffffffffffffffff167fddf252ad1be2c89b69c2b068fc378daa952ba7f163c4a11628f55a4df523b3ef84604051610c2291906110b7565b60405180910390a3610c35848484610ee2565b50505050565b610c4361075c565b73ffffffffffffffffffffffffffffffffffffffff16610c616104ad565b73ffffffffffffffffffffffffffffffffffffffff1614610cb7576040517f08c379a0000000000000000000000000000000000000000000000000000000008152600401610cae90611805565b60405180910390fd5b565b60008060009054906101000a900473ffffffffffffffffffffffffffffffffffffffff169050816000806101000a81548173ffffffffffffffffffffffffffffffffffffffff021916908373ffffffffffffffffffffffffffffffffffffffff1602179055508173ffffffffffffffffffffffffffffffffffffffff168173ffffffffffffffffffffffffffffffffffffffff167f8be0079c531659141344cd1fd0a4f28419497f9722a3daafe3b4186f6b6457e060405160405180910390a35050565b600073ffffffffffffffffffffffffffffffffffffffff168273ffffffffffffffffffffffffffffffffffffffff1603610dec576040517f08c379a0000000000000000000000000000000000000000000000000000000008152600401610de390611871565b60405180910390fd5b610df860008383610edd565b8060036000828254610e0a91906112af565b9250508190555080600160008473ffffffffffffffffffffffffffffffffffffffff1673ffffffffffffffffffffffffffffffffffffffff1681526020019081526020016000206000828254610e6091906112af565b925050819055508173ffffffffffffffffffffffffffffffffffffffff16600073ffffffffffffffffffffffffffffffffffffffff167fddf252ad1be2c89b69c2b068fc378daa952ba7f163c4a11628f55a4df523b3ef83604051610ec591906110b7565b60405180910390a3610ed960008383610ee2565b5050565b505050565b505050565b600081519050919050565b600082825260208201905092915050565b60005b83811015610f21578082015181840152602081019050610f06565b60008484015250505050565b6000601f19601f8301169050919050565b6000610f4982610ee7565b610f538185610ef2565b9350610f63818560208601610f03565b610f6c81610f2d565b840191505092915050565b60006020820190508181036000830152610f918184610f3e565b905092915050565b600080fd5b600073ffffffffffffffffffffffffffffffffffffffff82169050919050565b6000610fc982610f9e565b9050919050565b610fd981610fbe565b8114610fe457600080fd5b50565b600081359050610ff681610fd0565b92915050565b6000819050919050565b61100f81610ffc565b811461101a57600080fd5b50565b60008135905061102c81611006565b92915050565b6000806040838503121561104957611048610f99565b5b600061105785828601610fe7565b92505060206110688582860161101d565b9150509250929050565b60008115159050919050565b61108781611072565b82525050565b60006020820190506110a2600083018461107e565b92915050565b6110b181610ffc565b82525050565b60006020820190506110cc60008301846110a8565b92915050565b6000806000606084860312156110eb576110ea610f99565b5b60006110f986828701610fe7565b935050602061110a86828701610fe7565b925050604061111b8682870161101d565b9150509250925092565b600060ff82169050919050565b61113b81611125565b82525050565b60006020820190506111566000830184611132565b92915050565b60006020828403121561117257611171610f99565b5b600061118084828501610fe7565b91505092915050565b61119281610fbe565b82525050565b60006020820190506111ad6000830184611189565b92915050565b6000602082840312156111c9576111c8610f99565b5b60006111d78482850161101d565b91505092915050565b600080604083850312156111f7576111f6610f99565b5b600061120585828601610fe7565b925050602061121685828601610fe7565b9150509250929050565b7f4e487b7100000000000000000000000000000000000000000000000000000000600052602260045260246000fd5b6000600282049050600182168061126757607f821691505b60208210810361127a57611279611220565b5b50919050565b7f4e487b7100000000000000000000000000000000000000000000000000000000600052601160045260246000fd5b60006112ba82610ffc565b91506112c583610ffc565b92508282019050808211156112dd576112dc611280565b5b92915050565b7f45524332303a2064656372656173656420616c6c6f77616e63652062656c6f7760008201527f207a65726f000000000000000000000000000000000000000000000000000000602082015250565b600061133f602583610ef2565b915061134a826112e3565b604082019050919050565b6000602082019050818103600083015261136e81611332565b9050919050565b7f63616e6e6f74206d696e74203020746f6b656e73000000000000000000000000600082015250565b60006113ab601483610ef2565b91506113b682611375565b602082019050919050565b600060208201905081810360008301526113da8161139e565b9050919050565b7f4f776e61626c653a206e6577206f776e657220697320746865207a65726f206160008201527f6464726573730000000000000000000000000000000000000000000000000000602082015250565b600061143d602683610ef2565b9150611448826113e1565b604082019050919050565b6000602082019050818103600083015261146c81611430565b9050919050565b7f45524332303a20617070726f76652066726f6d20746865207a65726f2061646460008201527f7265737300000000000000000000000000000000000000000000000000000000602082015250565b60006114cf602483610ef2565b91506114da82611473565b604082019050919050565b600060208201905081810360008301526114fe816114c2565b9050919050565b7f45524332303a20617070726f766520746f20746865207a65726f20616464726560008201527f7373000000000000000000000000000000000000000000000000000000000000602082015250565b6000611561602283610ef2565b915061156c82611505565b604082019050919050565b6000602082019050818103600083015261159081611554565b9050919050565b7f45524332303a20696e73756666696369656e7420616c6c6f77616e6365000000600082015250565b60006115cd601d83610ef2565b91506115d882611597565b602082019050919050565b600060208201905081810360008301526115fc816115c0565b9050919050565b7f45524332303a207472616e736665722066726f6d20746865207a65726f20616460008201527f6472657373000000000000000000000000000000000000000000000000000000602082015250565b600061165f602583610ef2565b915061166a82611603565b604082019050919050565b6000602082019050818103600083015261168e81611652565b9050919050565b7f45524332303a207472616e7366657220746f20746865207a65726f206164647260008201527f6573730000000000000000000000000000000000000000000000000000000000602082015250565b60006116f1602383610ef2565b91506116fc82611695565b604082019050919050565b60006020820190508181036000830152611720816116e4565b9050919050565b7f45524332303a207472616e7366657220616d6f756e742065786365656473206260008201527f616c616e63650000000000000000000000000000000000000000000000000000602082015250565b6000611783602683610ef2565b915061178e82611727565b604082019050919050565b600060208201905081810360008301526117b281611776565b9050919050565b7f4f776e61626c653a2063616c6c6572206973206e6f7420746865206f776e6572600082015250565b60006117ef602083610ef2565b91506117fa826117b9565b602082019050919050565b6000602082019050818103600083015261181e816117e2565b9050919050565b7f45524332303a206d696e7420746f20746865207a65726f206164647265737300600082015250565b600061185b601f83610ef2565b915061186682611825565b602082019050919050565b6000602082019050818103600083015261188a8161184e565b905091905056fea264697066735822122021e0c59b7f579ba14f6bccc4990de41771b3616c5bc095334a03815361854a4064736f6c63430008110033",
	"linkReferences": {},
	"deployedLinkReferences": {}
}