{
	"_format": "hh-sol-artifact-1",
	"contractName": "NFTContract",
	"sourceName": "contracts/NFTContract.sol",
	"abi": [
		{
			"inputs": [
				{
					"internalType": "string",
					"name": "name_",
					"type": "string"
				},
				{
					"internalType": "string",
					"name": "symbol_",
					"type": "string"
				},
				{
					"internalType": "string",
					"name": "_uri",
					"type": "string"
				}
			],
			"stateMutability": "nonpayable",
			"type": "constructor"
		},
		{
			"anonymous": false,
			"inputs": [
				{
					"indexed": true,
					"internalType": "address",
					"name": "owner",
					"type": "address"
				},
				{
					"indexed": true,
					"internalType": "address",
					"name": "approved",
					"type": "address"
				},
				{
					"indexed": true,
					"internalType": "uint256",
					"name": "tokenId",
					"type": "uint256"
				}
			],
			"name": "Approval",
			"type": "event"
		},
		{
			"anonymous": false,
			"inputs": [
				{
					"indexed": true,
					"internalType": "address",
					"name": "owner",
					"type": "address"
				},
				{
					"indexed": true,
					"internalType": "address",
					"name": "operator",
					"type": "address"
				},
				{
					"indexed": false,
					"internalType": "bool",
					"name": "approved",
					"type": "bool"
				}
			],
			"name": "ApprovalForAll",
			"type": "event"
		},
		{
			"anonymous": false,
			"inputs": [
				{
					"indexed": true,
					"internalType": "address",
					"name": "from",
					"type": "address"
				},
				{
					"indexed": true,
					"internalType": "address",
					"name": "to",
					"type": "address"
				},
				{
					"indexed": true,
					"internalType": "uint256",
					"name": "tokenId",
					"type": "uint256"
				}
			],
			"name": "Transfer",
			"type": "event"
		},
		{
			"inputs": [],
			"name": "MAX_SUPPLY",
			"outputs": [
				{
					"internalType": "uint256",
					"name": "",
					"type": "uint256"
				}
			],
			"stateMutability": "view",
			"type": "function"
		},
		{
			"inputs": [
				{
					"internalType": "address",
					"name": "to",
					"type": "address"
				},
				{
					"internalType": "uint256",
					"name": "tokenId",
					"type": "uint256"
				}
			],
			"name": "approve",
			"outputs": [],
			"stateMutability": "nonpayable",
			"type": "function"
		},
		{
			"inputs": [
				{
					"internalType": "address",
					"name": "owner",
					"type": "address"
				}
			],
			"name": "balanceOf",
			"outputs": [
				{
					"internalType": "uint256",
					"name": "",
					"type": "uint256"
				}
			],
			"stateMutability": "view",
			"type": "function"
		},
		{
			"inputs": [
				{
					"internalType": "uint256",
					"name": "tokenId",
					"type": "uint256"
				}
			],
			"name": "getApproved",
			"outputs": [
				{
					"internalType": "address",
					"name": "",
					"type": "address"
				}
			],
			"stateMutability": "view",
			"type": "function"
		},
		{
			"inputs": [],
			"name": "getTotalMinted",
			"outputs": [
				{
					"internalType": "uint256",
					"name": "",
					"type": "uint256"
				}
			],
			"stateMutability": "view",
			"type": "function"
		},
		{
			"inputs": [
				{
					"internalType": "address",
					"name": "owner",
					"type": "address"
				},
				{
					"internalType": "address",
					"name": "operator",
					"type": "address"
				}
			],
			"name": "isApprovedForAll",
			"outputs": [
				{
					"internalType": "bool",
					"name": "",
					"type": "bool"
				}
			],
			"stateMutability": "view",
			"type": "function"
		},
		{
			"inputs": [],
			"name": "mintNFT",
			"outputs": [],
			"stateMutability": "nonpayable",
			"type": "function"
		},
		{
			"inputs": [],
			"name": "name",
			"outputs": [
				{
					"internalType": "string",
					"name": "",
					"type": "string"
				}
			],
			"stateMutability": "view",
			"type": "function"
		},
		{
			"inputs": [
				{
					"internalType": "uint256",
					"name": "tokenId",
					"type": "uint256"
				}
			],
			"name": "ownerOf",
			"outputs": [
				{
					"internalType": "address",
					"name": "",
					"type": "address"
				}
			],
			"stateMutability": "view",
			"type": "function"
		},
		{
			"inputs": [
				{
					"internalType": "address",
					"name": "from",
					"type": "address"
				},
				{
					"internalType": "address",
					"name": "to",
					"type": "address"
				},
				{
					"internalType": "uint256",
					"name": "tokenId",
					"type": "uint256"
				}
			],
			"name": "safeTransferFrom",
			"outputs": [],
			"stateMutability": "nonpayable",
			"type": "function"
		},
		{
			"inputs": [
				{
					"internalType": "address",
					"name": "from",
					"type": "address"
				},
				{
					"internalType": "address",
					"name": "to",
					"type": "address"
				},
				{
					"internalType": "uint256",
					"name": "tokenId",
					"type": "uint256"
				},
				{
					"internalType": "bytes",
					"name": "data",
					"type": "bytes"
				}
			],
			"name": "safeTransferFrom",
			"outputs": [],
			"stateMutability": "nonpayable",
			"type": "function"
		},
		{
			"inputs": [
				{
					"internalType": "address",
					"name": "operator",
					"type": "address"
				},
				{
					"internalType": "bool",
					"name": "approved",
					"type": "bool"
				}
			],
			"name": "setApprovalForAll",
			"outputs": [],
			"stateMutability": "nonpayable",
			"type": "function"
		},
		{
			"inputs": [
				{
					"internalType": "string",
					"name": "_uri",
					"type": "string"
				}
			],
			"name": "setBaseUri",
			"outputs": [],
			"stateMutability": "nonpayable",
			"type": "function"
		},
		{
			"inputs": [
				{
					"internalType": "bytes4",
					"name": "interfaceId",
					"type": "bytes4"
				}
			],
			"name": "supportsInterface",
			"outputs": [
				{
					"internalType": "bool",
					"name": "",
					"type": "bool"
				}
			],
			"stateMutability": "view",
			"type": "function"
		},
		{
			"inputs": [],
			"name": "symbol",
			"outputs": [
				{
					"internalType": "string",
					"name": "",
					"type": "string"
				}
			],
			"stateMutability": "view",
			"type": "function"
		},
		{
			"inputs": [
				{
					"internalType": "uint256",
					"name": "tokenId",
					"type": "uint256"
				}
			],
			"name": "tokenURI",
			"outputs": [
				{
					"internalType": "string",
					"name": "",
					"type": "string"
				}
			],
			"stateMutability": "view",
			"type": "function"
		},
		{
			"inputs": [],
			"name": "totalMinted",
			"outputs": [
				{
					"internalType": "uint256",
					"name": "",
					"type": "uint256"
				}
			],
			"stateMutability": "view",
			"type": "function"
		},
		{
			"inputs": [
				{
					"internalType": "address",
					"name": "from",
					"type": "address"
				},
				{
					"internalType": "address",
					"name": "to",
					"type": "address"
				},
				{
					"internalType": "uint256",
					"name": "tokenId",
					"type": "uint256"
				}
			],
			"name": "transferFrom",
			"outputs": [],
			"stateMutability": "nonpayable",
			"type": "function"
		},
		{
			"inputs": [],
			"name": "uri",
			"outputs": [
				{
					"internalType": "string",
					"name": "",
					"type": "string"
				}
			],
			"stateMutability": "view",
			"type": "function"
		}
	],
	"bytecode": "0x60806040523480156200001157600080fd5b506040516200317a3803806200317a83398181016040528101906200003791906200020d565b828281600090816200004a919062000511565b5080600190816200005c919062000511565b505050806008908162000070919062000511565b50505050620005f8565b6000604051905090565b600080fd5b600080fd5b600080fd5b600080fd5b6000601f19601f8301169050919050565b7f4e487b7100000000000000000000000000000000000000000000000000000000600052604160045260246000fd5b620000e38262000098565b810181811067ffffffffffffffff82111715620001055762000104620000a9565b5b80604052505050565b60006200011a6200007a565b9050620001288282620000d8565b919050565b600067ffffffffffffffff8211156200014b576200014a620000a9565b5b620001568262000098565b9050602081019050919050565b60005b838110156200018357808201518184015260208101905062000166565b60008484015250505050565b6000620001a6620001a0846200012d565b6200010e565b905082815260208101848484011115620001c557620001c462000093565b5b620001d284828562000163565b509392505050565b600082601f830112620001f257620001f16200008e565b5b8151620002048482602086016200018f565b91505092915050565b60008060006060848603121562000229576200022862000084565b5b600084015167ffffffffffffffff8111156200024a576200024962000089565b5b6200025886828701620001da565b935050602084015167ffffffffffffffff8111156200027c576200027b62000089565b5b6200028a86828701620001da565b925050604084015167ffffffffffffffff811115620002ae57620002ad62000089565b5b620002bc86828701620001da565b9150509250925092565b600081519050919050565b7f4e487b7100000000000000000000000000000000000000000000000000000000600052602260045260246000fd5b600060028204905060018216806200031957607f821691505b6020821081036200032f576200032e620002d1565b5b50919050565b60008190508160005260206000209050919050565b60006020601f8301049050919050565b600082821b905092915050565b600060088302620003997fffffffffffffffffffffffffffffffffffffffffffffffffffffffffffffffff826200035a565b620003a586836200035a565b95508019841693508086168417925050509392505050565b6000819050919050565b6000819050919050565b6000620003f2620003ec620003e684620003bd565b620003c7565b620003bd565b9050919050565b6000819050919050565b6200040e83620003d1565b620004266200041d82620003f9565b84845462000367565b825550505050565b600090565b6200043d6200042e565b6200044a81848462000403565b505050565b5b8181101562000472576200046660008262000433565b60018101905062000450565b5050565b601f821115620004c1576200048b8162000335565b62000496846200034a565b81016020851015620004a6578190505b620004be620004b5856200034a565b8301826200044f565b50505b505050565b600082821c905092915050565b6000620004e660001984600802620004c6565b1980831691505092915050565b6000620005018383620004d3565b9150826002028217905092915050565b6200051c82620002c6565b67ffffffffffffffff811115620005385762000537620000a9565b5b62000544825462000300565b6200055182828562000476565b600060209050601f83116001811462000589576000841562000574578287015190505b620005808582620004f3565b865550620005f0565b601f198416620005998662000335565b60005b82811015620005c3578489015182556001820191506020850194506020810190506200059c565b86831015620005e35784890151620005df601f891682620004d3565b8355505b6001600288020188555050505b505050505050565b612b7280620006086000396000f3fe608060405234801561001057600080fd5b50600436106101215760003560e01c80636352211e116100ad578063a2309ff811610071578063a2309ff8146102f4578063b88d4fde14610312578063c87b56dd1461032e578063e985e9c51461035e578063eac989f81461038e57610121565b80636352211e1461023e57806370a082311461026e57806395d89b411461029e578063a0bcfc7f146102bc578063a22cb465146102d857610121565b80630ca1c5c9116100f45780630ca1c5c9146101c057806314f710fe146101de57806323b872dd146101e857806332cb6b0c1461020457806342842e0e1461022257610121565b806301ffc9a71461012657806306fdde0314610156578063081812fc14610174578063095ea7b3146101a4575b600080fd5b610140600480360381019061013b91906118d3565b6103ac565b60405161014d919061191b565b60405180910390f35b61015e61048e565b60405161016b91906119c6565b60405180910390f35b61018e60048036038101906101899190611a1e565b610520565b60405161019b9190611a8c565b60405180910390f35b6101be60048036038101906101b99190611ad3565b610566565b005b6101c861067d565b6040516101d59190611b22565b60405180910390f35b6101e6610687565b005b61020260048036038101906101fd9190611b3d565b61070b565b005b61020c61076b565b6040516102199190611b22565b60405180910390f35b61023c60048036038101906102379190611b3d565b610771565b005b61025860048036038101906102539190611a1e565b610791565b6040516102659190611a8c565b60405180910390f35b61028860048036038101906102839190611b90565b610842565b6040516102959190611b22565b60405180910390f35b6102a66108f9565b6040516102b391906119c6565b60405180910390f35b6102d660048036038101906102d19190611cf2565b61098b565b005b6102f260048036038101906102ed9190611d67565b61099e565b005b6102fc6109b4565b6040516103099190611b22565b60405180910390f35b61032c60048036038101906103279190611e48565b6109ba565b005b61034860048036038101906103439190611a1e565b610a1c565b60405161035591906119c6565b60405180910390f35b61037860048036038101906103739190611ecb565b610a84565b604051610385919061191b565b60405180910390f35b610396610b18565b6040516103a391906119c6565b60405180910390f35b60007f80ac58cd000000000000000000000000000000000000000000000000000000007bffffffffffffffffffffffffffffffffffffffffffffffffffffffff1916827bffffffffffffffffffffffffffffffffffffffffffffffffffffffff1916148061047757507f5b5e139f000000000000000000000000000000000000000000000000000000007bffffffffffffffffffffffffffffffffffffffffffffffffffffffff1916827bffffffffffffffffffffffffffffffffffffffffffffffffffffffff1916145b80610487575061048682610ba6565b5b9050919050565b60606000805461049d90611f3a565b80601f01602080910402602001604051908101604052809291908181526020018280546104c990611f3a565b80156105165780601f106104eb57610100808354040283529160200191610516565b820191906000526020600020905b8154815290600101906020018083116104f957829003601f168201915b5050505050905090565b600061052b82610c10565b6004600083815260200190815260200160002060009054906101000a900473ffffffffffffffffffffffffffffffffffffffff169050919050565b600061057182610791565b90508073ffffffffffffffffffffffffffffffffffffffff168373ffffffffffffffffffffffffffffffffffffffff16036105e1576040517f08c379a00000000000000000000000000000000000000000000000000000000081526004016105d890611fdd565b60405180910390fd5b8073ffffffffffffffffffffffffffffffffffffffff16610600610c5b565b73ffffffffffffffffffffffffffffffffffffffff16148061062f575061062e81610629610c5b565b610a84565b5b61066e576040517f08c379a00000000000000000000000000000000000000000000000000000000081526004016106659061206f565b60405180910390fd5b6106788383610c63565b505050565b6000600754905090565b60006106936006610d1c565b90506103e88111156106da576040517f08c379a00000000000000000000000000000000000000000000000000000000081526004016106d1906120db565b60405180910390fd5b6106e43382610d2a565b6106ee6006610d48565b600160076000828254610701919061212a565b9250508190555050565b61071c610716610c5b565b82610d5e565b61075b576040517f08c379a0000000000000000000000000000000000000000000000000000000008152600401610752906121d0565b60405180910390fd5b610766838383610df3565b505050565b6103e881565b61078c838383604051806020016040528060008152506109ba565b505050565b6000806002600084815260200190815260200160002060009054906101000a900473ffffffffffffffffffffffffffffffffffffffff169050600073ffffffffffffffffffffffffffffffffffffffff168173ffffffffffffffffffffffffffffffffffffffff1603610839576040517f08c379a00000000000000000000000000000000000000000000000000000000081526004016108309061223c565b60405180910390fd5b80915050919050565b60008073ffffffffffffffffffffffffffffffffffffffff168273ffffffffffffffffffffffffffffffffffffffff16036108b2576040517f08c379a00000000000000000000000000000000000000000000000000000000081526004016108a9906122ce565b60405180910390fd5b600360008373ffffffffffffffffffffffffffffffffffffffff1673ffffffffffffffffffffffffffffffffffffffff168152602001908152602001600020549050919050565b60606001805461090890611f3a565b80601f016020809104026020016040519081016040528092919081815260200182805461093490611f3a565b80156109815780601f1061095657610100808354040283529160200191610981565b820191906000526020600020905b81548152906001019060200180831161096457829003601f168201915b5050505050905090565b806008908161099a919061249a565b5050565b6109b06109a9610c5b565b8383611059565b5050565b60075481565b6109cb6109c5610c5b565b83610d5e565b610a0a576040517f08c379a0000000000000000000000000000000000000000000000000000000008152600401610a01906121d0565b60405180910390fd5b610a16848484846111c5565b50505050565b6060610a2782610c10565b6000610a31611221565b90506000815111610a515760405180602001604052806000815250610a7c565b80610a5b846112b3565b604051602001610a6c9291906125f4565b6040516020818303038152906040525b915050919050565b6000600560008473ffffffffffffffffffffffffffffffffffffffff1673ffffffffffffffffffffffffffffffffffffffff16815260200190815260200160002060008373ffffffffffffffffffffffffffffffffffffffff1673ffffffffffffffffffffffffffffffffffffffff16815260200190815260200160002060009054906101000a900460ff16905092915050565b60088054610b2590611f3a565b80601f0160208091040260200160405190810160405280929190818152602001828054610b5190611f3a565b8015610b9e5780601f10610b7357610100808354040283529160200191610b9e565b820191906000526020600020905b815481529060010190602001808311610b8157829003601f168201915b505050505081565b60007f01ffc9a7000000000000000000000000000000000000000000000000000000007bffffffffffffffffffffffffffffffffffffffffffffffffffffffff1916827bffffffffffffffffffffffffffffffffffffffffffffffffffffffff1916149050919050565b610c1981611413565b610c58576040517f08c379a0000000000000000000000000000000000000000000000000000000008152600401610c4f9061223c565b60405180910390fd5b50565b600033905090565b816004600083815260200190815260200160002060006101000a81548173ffffffffffffffffffffffffffffffffffffffff021916908373ffffffffffffffffffffffffffffffffffffffff160217905550808273ffffffffffffffffffffffffffffffffffffffff16610cd683610791565b73ffffffffffffffffffffffffffffffffffffffff167f8c5be1e5ebec7d5bd14f71427d1e84f3dd0314c0f7b2291e5b200ac8c7c3b92560405160405180910390a45050565b600081600001549050919050565b610d4482826040518060200160405280600081525061147f565b5050565b6001816000016000828254019250508190555050565b600080610d6a83610791565b90508073ffffffffffffffffffffffffffffffffffffffff168473ffffffffffffffffffffffffffffffffffffffff161480610dac5750610dab8185610a84565b5b80610dea57508373ffffffffffffffffffffffffffffffffffffffff16610dd284610520565b73ffffffffffffffffffffffffffffffffffffffff16145b91505092915050565b8273ffffffffffffffffffffffffffffffffffffffff16610e1382610791565b73ffffffffffffffffffffffffffffffffffffffff1614610e69576040517f08c379a0000000000000000000000000000000000000000000000000000000008152600401610e6090612695565b60405180910390fd5b600073ffffffffffffffffffffffffffffffffffffffff168273ffffffffffffffffffffffffffffffffffffffff1603610ed8576040517f08c379a0000000000000000000000000000000000000000000000000000000008152600401610ecf90612727565b60405180910390fd5b610ee38383836114da565b610eee600082610c63565b6001600360008573ffffffffffffffffffffffffffffffffffffffff1673ffffffffffffffffffffffffffffffffffffffff1681526020019081526020016000206000828254610f3e9190612747565b925050819055506001600360008473ffffffffffffffffffffffffffffffffffffffff1673ffffffffffffffffffffffffffffffffffffffff1681526020019081526020016000206000828254610f95919061212a565b92505081905550816002600083815260200190815260200160002060006101000a81548173ffffffffffffffffffffffffffffffffffffffff021916908373ffffffffffffffffffffffffffffffffffffffff160217905550808273ffffffffffffffffffffffffffffffffffffffff168473ffffffffffffffffffffffffffffffffffffffff167fddf252ad1be2c89b69c2b068fc378daa952ba7f163c4a11628f55a4df523b3ef60405160405180910390a46110548383836114df565b505050565b8173ffffffffffffffffffffffffffffffffffffffff168373ffffffffffffffffffffffffffffffffffffffff16036110c7576040517f08c379a00000000000000000000000000000000000000000000000000000000081526004016110be906127c7565b60405180910390fd5b80600560008573ffffffffffffffffffffffffffffffffffffffff1673ffffffffffffffffffffffffffffffffffffffff16815260200190815260200160002060008473ffffffffffffffffffffffffffffffffffffffff1673ffffffffffffffffffffffffffffffffffffffff16815260200190815260200160002060006101000a81548160ff0219169083151502179055508173ffffffffffffffffffffffffffffffffffffffff168373ffffffffffffffffffffffffffffffffffffffff167f17307eab39ab6107e8899845ad3d59bd9653f200f220920489ca2b5937696c31836040516111b8919061191b565b60405180910390a3505050565b6111d0848484610df3565b6111dc848484846114e4565b61121b576040517f08c379a000000000000000000000000000000000000000000000000000000000815260040161121290612859565b60405180910390fd5b50505050565b60606008805461123090611f3a565b80601f016020809104026020016040519081016040528092919081815260200182805461125c90611f3a565b80156112a95780601f1061127e576101008083540402835291602001916112a9565b820191906000526020600020905b81548152906001019060200180831161128c57829003601f168201915b5050505050905090565b6060600082036112fa576040518060400160405280600181526020017f3000000000000000000000000000000000000000000000000000000000000000815250905061140e565b600082905060005b6000821461132c57808061131590612879565b915050600a8261132591906128f0565b9150611302565b60008167ffffffffffffffff81111561134857611347611bc7565b5b6040519080825280601f01601f19166020018201604052801561137a5781602001600182028036833780820191505090505b5090505b60008514611407576001826113939190612747565b9150600a856113a29190612921565b60306113ae919061212a565b60f81b8183815181106113c4576113c3612952565b5b60200101907effffffffffffffffffffffffffffffffffffffffffffffffffffffffffffff1916908160001a905350600a8561140091906128f0565b945061137e565b8093505050505b919050565b60008073ffffffffffffffffffffffffffffffffffffffff166002600084815260200190815260200160002060009054906101000a900473ffffffffffffffffffffffffffffffffffffffff1673ffffffffffffffffffffffffffffffffffffffff1614159050919050565b611489838361166b565b61149660008484846114e4565b6114d5576040517f08c379a00000000000000000000000000000000000000000000000000000000081526004016114cc90612859565b60405180910390fd5b505050565b505050565b505050565b60006115058473ffffffffffffffffffffffffffffffffffffffff16611844565b1561165e578373ffffffffffffffffffffffffffffffffffffffff1663150b7a0261152e610c5b565b8786866040518563ffffffff1660e01b815260040161155094939291906129d6565b6020604051808303816000875af192505050801561158c57506040513d601f19601f820116820180604052508101906115899190612a37565b60015b61160e573d80600081146115bc576040519150601f19603f3d011682016040523d82523d6000602084013e6115c1565b606091505b506000815103611606576040517f08c379a00000000000000000000000000000000000000000000000000000000081526004016115fd90612859565b60405180910390fd5b805181602001fd5b63150b7a0260e01b7bffffffffffffffffffffffffffffffffffffffffffffffffffffffff1916817bffffffffffffffffffffffffffffffffffffffffffffffffffffffff191614915050611663565b600190505b949350505050565b600073ffffffffffffffffffffffffffffffffffffffff168273ffffffffffffffffffffffffffffffffffffffff16036116da576040517f08c379a00000000000000000000000000000000000000000000000000000000081526004016116d190612ab0565b60405180910390fd5b6116e381611413565b15611723576040517f08c379a000000000000000000000000000000000000000000000000000000000815260040161171a90612b1c565b60405180910390fd5b61172f600083836114da565b6001600360008473ffffffffffffffffffffffffffffffffffffffff1673ffffffffffffffffffffffffffffffffffffffff168152602001908152602001600020600082825461177f919061212a565b92505081905550816002600083815260200190815260200160002060006101000a81548173ffffffffffffffffffffffffffffffffffffffff021916908373ffffffffffffffffffffffffffffffffffffffff160217905550808273ffffffffffffffffffffffffffffffffffffffff16600073ffffffffffffffffffffffffffffffffffffffff167fddf252ad1be2c89b69c2b068fc378daa952ba7f163c4a11628f55a4df523b3ef60405160405180910390a4611840600083836114df565b5050565b6000808273ffffffffffffffffffffffffffffffffffffffff163b119050919050565b6000604051905090565b600080fd5b600080fd5b60007fffffffff0000000000000000000000000000000000000000000000000000000082169050919050565b6118b08161187b565b81146118bb57600080fd5b50565b6000813590506118cd816118a7565b92915050565b6000602082840312156118e9576118e8611871565b5b60006118f7848285016118be565b91505092915050565b60008115159050919050565b61191581611900565b82525050565b6000602082019050611930600083018461190c565b92915050565b600081519050919050565b600082825260208201905092915050565b60005b83811015611970578082015181840152602081019050611955565b60008484015250505050565b6000601f19601f8301169050919050565b600061199882611936565b6119a28185611941565b93506119b2818560208601611952565b6119bb8161197c565b840191505092915050565b600060208201905081810360008301526119e0818461198d565b905092915050565b6000819050919050565b6119fb816119e8565b8114611a0657600080fd5b50565b600081359050611a18816119f2565b92915050565b600060208284031215611a3457611a33611871565b5b6000611a4284828501611a09565b91505092915050565b600073ffffffffffffffffffffffffffffffffffffffff82169050919050565b6000611a7682611a4b565b9050919050565b611a8681611a6b565b82525050565b6000602082019050611aa16000830184611a7d565b92915050565b611ab081611a6b565b8114611abb57600080fd5b50565b600081359050611acd81611aa7565b92915050565b60008060408385031215611aea57611ae9611871565b5b6000611af885828601611abe565b9250506020611b0985828601611a09565b9150509250929050565b611b1c816119e8565b82525050565b6000602082019050611b376000830184611b13565b92915050565b600080600060608486031215611b5657611b55611871565b5b6000611b6486828701611abe565b9350506020611b7586828701611abe565b9250506040611b8686828701611a09565b9150509250925092565b600060208284031215611ba657611ba5611871565b5b6000611bb484828501611abe565b91505092915050565b600080fd5b600080fd5b7f4e487b7100000000000000000000000000000000000000000000000000000000600052604160045260246000fd5b611bff8261197c565b810181811067ffffffffffffffff82111715611c1e57611c1d611bc7565b5b80604052505050565b6000611c31611867565b9050611c3d8282611bf6565b919050565b600067ffffffffffffffff821115611c5d57611c5c611bc7565b5b611c668261197c565b9050602081019050919050565b82818337600083830152505050565b6000611c95611c9084611c42565b611c27565b905082815260208101848484011115611cb157611cb0611bc2565b5b611cbc848285611c73565b509392505050565b600082601f830112611cd957611cd8611bbd565b5b8135611ce9848260208601611c82565b91505092915050565b600060208284031215611d0857611d07611871565b5b600082013567ffffffffffffffff811115611d2657611d25611876565b5b611d3284828501611cc4565b91505092915050565b611d4481611900565b8114611d4f57600080fd5b50565b600081359050611d6181611d3b565b92915050565b60008060408385031215611d7e57611d7d611871565b5b6000611d8c85828601611abe565b9250506020611d9d85828601611d52565b9150509250929050565b600067ffffffffffffffff821115611dc257611dc1611bc7565b5b611dcb8261197c565b9050602081019050919050565b6000611deb611de684611da7565b611c27565b905082815260208101848484011115611e0757611e06611bc2565b5b611e12848285611c73565b509392505050565b600082601f830112611e2f57611e2e611bbd565b5b8135611e3f848260208601611dd8565b91505092915050565b60008060008060808587031215611e6257611e61611871565b5b6000611e7087828801611abe565b9450506020611e8187828801611abe565b9350506040611e9287828801611a09565b925050606085013567ffffffffffffffff811115611eb357611eb2611876565b5b611ebf87828801611e1a565b91505092959194509250565b60008060408385031215611ee257611ee1611871565b5b6000611ef085828601611abe565b9250506020611f0185828601611abe565b9150509250929050565b7f4e487b7100000000000000000000000000000000000000000000000000000000600052602260045260246000fd5b60006002820490506001821680611f5257607f821691505b602082108103611f6557611f64611f0b565b5b50919050565b7f4552433732313a20617070726f76616c20746f2063757272656e74206f776e6560008201527f7200000000000000000000000000000000000000000000000000000000000000602082015250565b6000611fc7602183611941565b9150611fd282611f6b565b604082019050919050565b60006020820190508181036000830152611ff681611fba565b9050919050565b7f4552433732313a20617070726f76652063616c6c6572206973206e6f7420746f60008201527f6b656e206f776e6572206e6f7220617070726f76656420666f7220616c6c0000602082015250565b6000612059603e83611941565b915061206482611ffd565b604082019050919050565b600060208201905081810360008301526120888161204c565b9050919050565b7f6c696d6974206578636565646564000000000000000000000000000000000000600082015250565b60006120c5600e83611941565b91506120d08261208f565b602082019050919050565b600060208201905081810360008301526120f4816120b8565b9050919050565b7f4e487b7100000000000000000000000000000000000000000000000000000000600052601160045260246000fd5b6000612135826119e8565b9150612140836119e8565b9250828201905080821115612158576121576120fb565b5b92915050565b7f4552433732313a2063616c6c6572206973206e6f7420746f6b656e206f776e6560008201527f72206e6f7220617070726f766564000000000000000000000000000000000000602082015250565b60006121ba602e83611941565b91506121c58261215e565b604082019050919050565b600060208201905081810360008301526121e9816121ad565b9050919050565b7f4552433732313a20696e76616c696420746f6b656e2049440000000000000000600082015250565b6000612226601883611941565b9150612231826121f0565b602082019050919050565b6000602082019050818103600083015261225581612219565b9050919050565b7f4552433732313a2061646472657373207a65726f206973206e6f74206120766160008201527f6c6964206f776e65720000000000000000000000000000000000000000000000602082015250565b60006122b8602983611941565b91506122c38261225c565b604082019050919050565b600060208201905081810360008301526122e7816122ab565b9050919050565b60008190508160005260206000209050919050565b60006020601f8301049050919050565b600082821b905092915050565b6000600883026123507fffffffffffffffffffffffffffffffffffffffffffffffffffffffffffffffff82612313565b61235a8683612313565b95508019841693508086168417925050509392505050565b6000819050919050565b600061239761239261238d846119e8565b612372565b6119e8565b9050919050565b6000819050919050565b6123b18361237c565b6123c56123bd8261239e565b848454612320565b825550505050565b600090565b6123da6123cd565b6123e58184846123a8565b505050565b5b81811015612409576123fe6000826123d2565b6001810190506123eb565b5050565b601f82111561244e5761241f816122ee565b61242884612303565b81016020851015612437578190505b61244b61244385612303565b8301826123ea565b50505b505050565b600082821c905092915050565b600061247160001984600802612453565b1980831691505092915050565b600061248a8383612460565b9150826002028217905092915050565b6124a382611936565b67ffffffffffffffff8111156124bc576124bb611bc7565b5b6124c68254611f3a565b6124d182828561240d565b600060209050601f83116001811461250457600084156124f2578287015190505b6124fc858261247e565b865550612564565b601f198416612512866122ee565b60005b8281101561253a57848901518255600182019150602085019450602081019050612515565b868310156125575784890151612553601f891682612460565b8355505b6001600288020188555050505b505050505050565b600081905092915050565b600061258282611936565b61258c818561256c565b935061259c818560208601611952565b80840191505092915050565b7f2e6a736f6e000000000000000000000000000000000000000000000000000000600082015250565b60006125de60058361256c565b91506125e9826125a8565b600582019050919050565b60006126008285612577565b915061260c8284612577565b9150612617826125d1565b91508190509392505050565b7f4552433732313a207472616e736665722066726f6d20696e636f72726563742060008201527f6f776e6572000000000000000000000000000000000000000000000000000000602082015250565b600061267f602583611941565b915061268a82612623565b604082019050919050565b600060208201905081810360008301526126ae81612672565b9050919050565b7f4552433732313a207472616e7366657220746f20746865207a65726f2061646460008201527f7265737300000000000000000000000000000000000000000000000000000000602082015250565b6000612711602483611941565b915061271c826126b5565b604082019050919050565b6000602082019050818103600083015261274081612704565b9050919050565b6000612752826119e8565b915061275d836119e8565b9250828203905081811115612775576127746120fb565b5b92915050565b7f4552433732313a20617070726f766520746f2063616c6c657200000000000000600082015250565b60006127b1601983611941565b91506127bc8261277b565b602082019050919050565b600060208201905081810360008301526127e0816127a4565b9050919050565b7f4552433732313a207472616e7366657220746f206e6f6e20455243373231526560008201527f63656976657220696d706c656d656e7465720000000000000000000000000000602082015250565b6000612843603283611941565b915061284e826127e7565b604082019050919050565b6000602082019050818103600083015261287281612836565b9050919050565b6000612884826119e8565b91507fffffffffffffffffffffffffffffffffffffffffffffffffffffffffffffffff82036128b6576128b56120fb565b5b600182019050919050565b7f4e487b7100000000000000000000000000000000000000000000000000000000600052601260045260246000fd5b60006128fb826119e8565b9150612906836119e8565b925082612916576129156128c1565b5b828204905092915050565b600061292c826119e8565b9150612937836119e8565b925082612947576129466128c1565b5b828206905092915050565b7f4e487b7100000000000000000000000000000000000000000000000000000000600052603260045260246000fd5b600081519050919050565b600082825260208201905092915050565b60006129a882612981565b6129b2818561298c565b93506129c2818560208601611952565b6129cb8161197c565b840191505092915050565b60006080820190506129eb6000830187611a7d565b6129f86020830186611a7d565b612a056040830185611b13565b8181036060830152612a17818461299d565b905095945050505050565b600081519050612a31816118a7565b92915050565b600060208284031215612a4d57612a4c611871565b5b6000612a5b84828501612a22565b91505092915050565b7f4552433732313a206d696e7420746f20746865207a65726f2061646472657373600082015250565b6000612a9a602083611941565b9150612aa582612a64565b602082019050919050565b60006020820190508181036000830152612ac981612a8d565b9050919050565b7f4552433732313a20746f6b656e20616c7265616479206d696e74656400000000600082015250565b6000612b06601c83611941565b9150612b1182612ad0565b602082019050919050565b60006020820190508181036000830152612b3581612af9565b905091905056fea2646970667358221220e4eb0b7d0098b5daa5c7c626799ebd0a72b9f8c40e9734b67356c7e7d45d09b764736f6c63430008110033",
	"linkReferences": {},
	"deployedLinkReferences": {}
}